:020000040800F2
:10000000D02700200D020008150200081702000882
:10001000190200081B0200081D0200080000000071
:100020000000000000000000000000001F020008A7
:100030002102000800000000230200082502000839
:10004000ED4000081D28000899380008872B00089B
:10005000590B0008D92A0008850A0008890A0008F7
:100060008B0A00088D0A00088F0A0008A107000803
:10007000E5070008E7070008E9070008EB070008A4
:10008000ED070008EF070008C7020008DB40000882
:10009000DD4000082702000827020008910A000836
:1000A0009B380008A13800089F3800089D380008D8
:1000B000A53800084B3900084D390008CF0E00085C
:1000C000CD0E0008D30E0008D10E0008F12E000856
:1000D000F32E0008153D00087D3E00087F3E000815
:1000E000870A0008852B0008D9400008D739000886
:1000F000DD390008DB390008D93900081D04000883
:10010000130D0008892B00084F390008F52E000850
:10011000353B0008113D000851390008D539000869
:10012000F1070008F3070008F5070008F7070008C3
:1001300000F002F800F05AF80AA090E8000C82449F
:100140008344AAF10107DA4501D100F04FF8AFF27C
:10015000090EBAE80F0013F0010F18BFFB1A43F0A5
:100160000103184740580000605800000A444FF04F
:10017000000C10F8013B13F0070408BF10F8014B06
:100180001D1108BF10F8015B641E05D010F8016B4B
:10019000641E01F8016BF9D113F0080F1EBF10F8AF
:1001A000014BAD1C0C1B09D16D1E58BF01F801CBD2
:1001B000FAD505E014F8016B01F8016B6D1EF9D555
:1001C0009142D6D37047000000230024002500266A
:1001D000103A28BF78C1FBD8520728BF30C148BFAA
:1001E0000B6070471FB51FBD10B510BD00F031F892
:1001F0001146FFF7F7FF04F0A3FB00F04FF803B43C
:10020000FFF7F2FF03BC00F057F8000009488047F1
:1002100009480047FEE7FEE7FEE7FEE7FEE7FEE7E8
:10022000FEE7FEE7FEE7FEE704480549054A064B00
:10023000704700003938000831010008D021002043
:10024000D0270020D0230020D02300207047704703
:100250007047754600F02CF8AE46050069465346D7
:1002600020F00700854618B020B5FFF7DDFFBDE898
:1002700020404FF000064FF000074FF000084FF00D
:10028000000B21F00701AC46ACE8C009ACE8C0099E
:10029000ACE8C009ACE8C0098D46704710B504460B
:1002A000AFF300802046BDE81040FFF7A8BF000074
:1002B000004870476C21002001491820ABBEFEE7C2
:1002C000260002007047704700B591B00121084632
:1002D00002F0B2FA0121480202F0CEFA0720ADF88E
:1002E000000000208DF803006946474800F05FFDDC
:1002F0000820ADF8000000208DF80300694643484F
:1003000000F055FD424800F091FA42480190424801
:100310000290002003904FF480500490002005903C
:1003200080200690400007908000089020200990CF
:1003300000020A9000200B9001A9354800F03BFB19
:100340000121334800F066FA012000F059F94FF41A
:10035000404002F065FA00200C9001208DF8340036
:100360008DF835004FF460200E9000200F9004208F
:100370008DF840000CA927484C3800F07BF8072383
:1003800001220A2123484C3800F0ADF8072302224D
:10039000032120484C3800F0A6F80723032211213E
:1003A0001C484C3800F09FF80723042210211948FC
:1003B0004C3800F098F8012116484C3800F03AF813
:1003C000012114484C3800F02AF812484C3800F04B
:1003D000E6F800BF0F484C3800F041F80028F9D18A
:1003E0000C484C3800F007F900BF0A484C3800F0C0
:1003F0002CF80028F9D1002106484C3800F00FF8FD
:1004000000F060F811B000BD00100140000801408C
:10041000080002404C24014048010020704721B1EF
:10042000826842F00102826003E0826822F00102E9
:100430008260704721B1826842F48072826003E07A
:10044000826822F4807282607047014600208A68C8
:1004500002F004020AB1012000E0002070470146CA
:1004600000208A6802F008020AB1012000E00020A2
:100470007047000030B502460020002350680F4C42
:1004800020400D790C6844EA0524204350609068B0
:100490000B4C2040D1E902542C434D7944EA4504E9
:1004A00020439060D06A20F470000C7C641EE4B29B
:1004B000234340EA0350D06230BD0000FFFEF0FF4E
:1004C000FDF7F1FF08B50B208DF800000A208DF82C
:1004D000010000208DF8020001208DF8030068461D
:1004E00002F050F908BDF0B504460D460020002189
:1004F000092D11DDE068A5F10A0606EB460707267F
:1005000006FA07F18843A5F10A0606EB460603FA48
:1005100006F10843E0600CE0206905EB450707267B
:1005200006FA07F1884305EB450603FA06F108438E
:100530002061072A0FDA606B561E06EB86071F261E
:1005400006FA07F18843561E06EB860605FA06F101
:100550000843606322E00D2A0FDA206BD61F06EBFA
:1005600086071F2606FA07F18843D61F06EB860684
:1005700005FA06F10843206310E0E06AA2F10D06D7
:1005800006EB86071F2606FA07F18843A2F10D063F
:1005900006EB860605FA06F10843E062F0BD8168C5
:1005A00041F008018160704710B501210A48FFF74A
:1005B00036FF01220621094800F0F4F9012107481D
:1005C00000F028F90121044800F00AF84FF4FA601D
:1005D00000F04DFA10BD0000002401400800024068
:1005E00021B1826842F4A002826003E0826822F4B2
:1005F000A00282607047816841F004018160704709
:1006000030B10749096841F40001054A116005E06D
:100610000349096821F40001014A11607047000094
:10062000082401402DE9F04100242A4800780028E0
:100630004EDC29480078012807D128490D8805EBB0
:10064000D571481000F0A4F842E02548008804F075
:10065000E3FE054623480168284604F0F1FF04D86C
:100660001E48008800F094F832E01F48008804F02B
:10067000D3FE05461B480168284604F0E1FE04D875
:100680001A48008800F084F822E01448008804F03A
:10069000C3FE80461548008810490988401A12494F
:1006A000098890FBF1F7384604F09EFE06460D4897
:1006B0000168304604F0F8FE0546414604F044FD6A
:1006C0000446204604F070FE85B2284600F060F82B
:1006D000BDE8F081570000203400002058000020C1
:1006E0003800002030000020360000205A00002092
:1006F00010B502F0D1F801F0EFFE02F037F810BDAE
:1007000039B1084A1268012383401A43054B1A6025
:1007100006E0044A1268012383409A43014B1A60A1
:10072000704700000074004030B5002200230A4CDE
:10073000226840F6FE748440A243D1E900452C4370
:100740008D682C43CD6844EA050303FA00F4224384
:10075000014C226030BD00000074004008B500224A
:100760000092054A009200F10802009B1A44009290
:10077000009A116008BD0000007400400021016073
:1007800041608160C160704710B500F033F910BD61
:1007900010B5044621460020FFF7E0FF10BD000021
:1007A00010B5022000F0E8F8012809D1022000F07D
:1007B00023F80120094908700020094908700CE05D
:1007C000042000F0D9F8012807D1042000F014F823
:1007D0000120024908700249087010BD180000206D
:1007E0001900002070477047704770477047704786
:1007F000704770477047704700F0805111B103494E
:10080000086001E0024948607047000004040240AB
:100810000000024021B1026842F00102026004E0DF
:1008200002684FF6FE731A400260704701684FF687
:10083000FE72114001600021016041608160C16071
:100840004B49884208D14A490839496841F00F01AB
:10085000474A083A51608AE045491431884208D134
:1008600043490839496841F0F001414A083A51606A
:100870007DE03F492831884208D13D49083949681F
:1008800041F470613A4A083A516070E038493C31AD
:10089000884208D136490839496841F47041344AE0
:1008A000083A516063E032495031884208D13049FA
:1008B0000839496841F470212D4A083A516056E0E0
:1008C0002B496431884208D129490839496841F4E3
:1008D0007001274A083A516049E025497831884239
:1008E00008D123490839496841F07061204A083A23
:1008F00051603CE01F49884206D1011F096841F060
:100900000F01021F116032E01A491431884208D1E8
:100910001849091F096841F0F001164A121F1160B9
:1009200025E014492831884208D11249091F096875
:1009300041F470610F4A121F116018E00D493C31FB
:10094000884208D10B49091F096841F47041094ADE
:10095000121F11600BE007495031884207D1054949
:10096000091F096841F47021024A121F1160704783
:10097000080002400804024001460020002201F065
:10098000805313B1054B1A6801E0054B1A6802EA5F
:1009900001030BB1012000E0002070470004024079
:1009A000000002401AB103680B43036002E00368D1
:1009B0008B430360704710B50022026847F6F0735E
:1009C0009A430C6A8B6823430C6923434C69234385
:1009D0008C692343CC6923434C6A23438C6A2343A9
:1009E0001A430260CB6843600B6883604B68C36046
:1009F00010BD000000B585B06846FFF7BFFE0121BD
:100A0000480701F029FF1020ADF8100000208DF8F4
:100A1000130003208DF8120004A90C4800F0C7F958
:100A200010210A4800F050FA002000900190039035
:100A30006946FFF779FE01210020FFF761FE0448B7
:100A400001880020FFF78AFE05B000BD00080140C4
:100A500058000020002100E0491C8142FCDB704767
:100A6000002000E0401CB0F5FA5FFBD3704700B5F2
:100A70000246002303E0FFF7F3FF581C83B29342C2
:100A8000F9DB00BD7047704770477047704770478B
:100A9000704700000020084908704FF4F5700749BE
:100AA000088040F6C41006490880012005490870F6
:100AB00005490870704700002B00002058000020F6
:100AC0005A0000205C0000205D0000200149C86041
:100AD000704700000020024030B5044604254FF462
:100AE000302000F003F90546042D17D10C480069A9
:100AF00040F002000A49086108464461006940F07C
:100B0000400008614FF4302000F0F0F8054604483A
:100B1000006941F6FD71084001490861284630BD71
:100B20000020024004200B49C96801F0010109B10D
:100B300001200EE00749C96801F0040109B1022053
:100B400007E00449C96801F0100109B1032000E081
:100B500004207047002002407047000003480069ED
:100B600040F0800001490861704700000020024009
:100B70000A4800780A4908700848808809490880AE
:100B800006480089084908800448007B0749087026
:100B90000248007C064908707047000034010020BC
:100BA0002B000020580000205A0000205C0000208C
:100BB0005D0000200848007808490860084800885F
:100BC000486008480088886007480078C86007487F
:100BD00000780861704700002B00002034010020DD
:100BE000580000205A0000205C0000205D0000201A
:100BF0000549096821F01001034A1160114609688E
:100C000001431160704700000020024078B506469D
:100C10000C46042500200090E80200F067F8054625
:100C2000042D24D11348006940F0010011490861E6
:100C30003480E80200F05AF80546042D10D1B01CAB
:100C40000090200C00990880E80200F04FF805465B
:100C50000848006941F6FE7108400649086106E04F
:100C60000448006941F6FE710840024908612846BF
:100C700078BD00000020024010B5044C2146044815
:100C800000F048F8FFF774FF10BD000034010020A9
:100C900000F8070801460020034A106800F03800F9
:100CA00008431060704700000020024002480349DA
:100CB00048600348486070472301674500200240B0
:100CC000AB89EFCD10B5074CFFF774FF012003F09F
:100CD0002BFA2146044800F03CF8002003F024FAE7
:100CE00010BD00003401002000F8070800B50246DE
:100CF0000423FFF717FF034603E0FFF713FF034644
:100D0000521E012B01D1002AF7D102B90523184642
:100D100000BD7047F8B506460C46002512E006EB0C
:100D2000850000F013F800900098401C20B9FFF7F0
:100D3000B1FEFFF7C7FFF8BD6F4638682060241D7D
:100D4000681CC5B2052DEADB00BFF4E70146086860
:100D500070472DE9F04107460C46FFF7A7FF352005
:100D6000FFF7B4FE3846FFF7B7FE064604E04FF43F
:100D70007A70FFF7BBFF0646042EF8D1002510E07D
:100D800038462168FFF742FF064604E04FF47A70C8
:100D9000FFF7ACFF0646042EF8D13F1D241D681C4A
:100DA000C5B2052DECDBFFF7D9FEBDE8F0812DE9DA
:100DB000F0410246002500260020002300240027E1
:100DC00091F803C00CF00F0591F803C00CF0100C63
:100DD000BCF1000F03D091F802C04CEA050591F870
:100DE00000C0BCF1000F31D0146800202BE04FF0A0
:100DF000010C0CFA00F3B1F800C00CEA03069E42A5
:100E000020D183004FF00F0C0CFA03F7BC4305FA16
:100E100003FC4CEA040491F803C0BCF1280F06D18E
:100E20004FF0010C0CFA00FCC2F814C00AE091F873
:100E300003C0BCF1480F05D14FF0010C0CFA00FCC7
:100E4000C2F810C0401C0828D1D31460B1F800C00B
:100E5000BCF1FF0F34DD546800202EE000F1080CD7
:100E60004FF0010808FA0CF3B1F800C00CEA0306D1
:100E70009E4221D183004FF00F0C0CFA03F7BC43C4
:100E800005FA03FC4CEA040491F803C0BCF1280FF6
:100E900005D100F1080C08FA0CF8C2F8148091F89A
:100EA00003C0BCF1480F07D100F1080C4FF0010856
:100EB00008FA0CF8C2F81080401C0828CED3546001
:100EC000BDE8F0814161704701617047704770472C
:100ED0007047704710B500F019F8094909480068D3
:100EE00004F0AEFB05D24FF480610748FFF7ECFF3A
:100EF00004E04FF480610448FFF7E4FF10BD0000F8
:100F00000000EB441C000020000C01402DE9F041E2
:100F100000261648007830B3154C1648007808B9FA
:100F200004F58054A41D34F8020B04F075FA06464B
:100F300001250BE0A41D34F8020B04F06DFA0746FE
:100F4000314604F001F90646681C85B2B5F5007F0C
:100F5000F0DB0020054908704FF08841304604F06E
:100F600061F905490860BDE8F08100001800002023
:100F700048010020190000201C00002008B54FF493
:100F800080610B48FFF79EFF4FF48060ADF80000D2
:100F900010208DF8030003208DF8020069460448F4
:100FA000FFF705FF4FF480610148FFF78BFF08BD95
:100FB000000C014008B54FF480410B48FFF782FF59
:100FC0004FF400510848FFF77DFF4FF4C040ADF8E3
:100FD000000010208DF8030003208DF80200694600
:100FE0000148FFF7E4FE08BD001001402DE9F04183
:100FF00000240026002734480068C0F380103249DE
:10100000096801F0800140EA9114E043C4B204F0A1
:101010000304012C02D0022C04D101E0022604E0DA
:10102000012602E00020BDE8F08100BF2746142021
:10103000FFF71DFD002424480068C0F380102249FA
:10104000096801F0800140EA9114E043C4B204F061
:101050000304BC4201D00020E5E7002513E0002492
:1010600019480068C0F380101749096801F0800131
:1010700040EA9114E043C4B204F003046420FFF793
:10108000F6FC681CC5B20CB1142DE8DB142D06D19A
:10109000012E01D1032602E0022E00D104260EE02B
:1010A000002409480068C0F380100749096801F06E
:1010B000800140EA9114E043C4B204F00304002C20
:1010C000EED13046AFE700000808014008B5C02067
:1010D000ADF8000048208DF8030069460148FFF78D
:1010E00066FE08BD0008014010B5FFF77FFF01282C
:1010F00006D002285CD003287ED0042857D1EAE02D
:101100008748007801280FD18648007886490978F9
:10111000884204DC854800788249087004E08148F0
:101120000078401E7F4908707D48007802283ED133
:101130007F48007802283AD07E487F490978405C91
:10114000092805DB00207B497B4A1278885408E097
:10115000784879490978405C401C7649764A12788B
:10116000885476480078012821D17248007842F2EC
:10117000107148436F49497801EB4102C2EBC1113C
:1011800000EBC1016B48807800EBC00202EB00105D
:1011900001EB80006749C97801EB810100EB410058
:1011A00064490979084484B22046FFF7F1FAB5E0B2
:1011B0005B48007801280FD15A4800785B490978CC
:1011C000884204DB584800785649087004E05548C6
:1011D0000078401C5349087051480078022811D10A
:1011E0005348007802280DD053480078002804DCCA
:1011F00004205149087005E005E04F480078401E82
:101200004D4908708AE046480078E8B3012802D0CA
:1012100002285DD144E043480078042813D04148B7
:10122000007805280FD03F48007806280BD03D48AD
:101230000078082807D03B480078092803D03948AF
:1012400000780A2802D101F0E3FE28E03548007852
:10125000072821D1002037490870487038480078A5
:10126000642190FBF1F0334988703548007864219F
:1012700090FBF1F201FB12000A2190FBF1F02D49E5
:10128000C8702F48007800E00DE00A2190FBF1F2D1
:1012900001FB12002749087102202149087018E05B
:1012A00001F0B6FE15E001201D4908701D490870C7
:1012B00000202049087048708870C87008710420A8
:1012C0001D49087000201A4908701C49087000E088
:1012D00000BF00BF22E000201149087017490870C4
:1012E00013480078002815DD5A2016490870A520FB
:1012F000487000208870FE20C87000200871487176
:101300008871C87108720120487200200E49087067
:1013100001F092FD00200649087000BF00BF10BD1B
:101320004D0000204E0000205500002054000020F9
:10133000410000204F0000205600002057000020F0
:101340002B0000205F2100202D00002010B500227E
:101350002B4801782B48007800F054FF00222A48DF
:1013600001782A48007800F04DFF002228480178D3
:101370002848007800F046FF0022274801782748D7
:10138000007800F03FFF00222548017825480078CA
:1013900000F038FF0022244801782448007800F04B
:1013A00031FF0022224801782248007800F02AFF0D
:1013B0000022214801782148007800F023FF002214
:1013C0001F4801781F48007800F01CFF00211E48CC
:1013D000007800F0F1FE00211C48007800F0ECFEDF
:1013E00000211B48007800F0E7FE00211948007832
:1013F00000F0E2FE00211848007800F0DDFE10BD8C
:101400001C0100201B0100201E0100201D010020E6
:10141000200100201F0100202201002021010020C6
:1014200025010020240100202701002026010020A2
:1014300029010020280100202B0100202A01002082
:101440002D0100202C010020310100202E01002060
:10145000230100202F0100203001002010B500F0F2
:1014600085F94FF49670FFF702FB00F09BF800201F
:1014700000F0CCF810BD000070B5314800780A21AA
:1014800090FBF1F0C4B22E48007890FBF1F201FB22
:101490001200C5B2FFF75AFF2A48C1782A480078DF
:1014A00000F08AFE2948027D294801782948007801
:1014B00000F0A8FE2548827D27480178274800785B
:1014C00000F0A0FE2648025D2648017826480078F4
:1014D00000F098FE2248425D2448017824480078B4
:1014E00000F090FE0022234801782348007800F0A5
:1014F00089FE2248C27B224801782248007800F009
:1015000081FE1E48027E204801782048007800F0C5
:1015100079FE1A48027E1E4801781E48007800F0C5
:1015200071FE00221C4801781C48007800F06AFE19
:101530004FF4FA60FFF79BFA00201949087070BD5C
:101540004E0000200F0100202F010020600000202D
:101550001C0100201B0100201E0100201D01002095
:1015600096000020200100201F0100202201002001
:101570002101002025010020240100207B00002003
:101580002701002026010020290100202801002039
:101590002B0100202A0100202D0100202C01002019
:1015A0004D00002010B51848006840F004001649AE
:1015B00008601920FFF74EFA8021032000F09CF804
:1015C0000321002000F04EF80721002000F04AF827
:1015D0003721002000F046F85721002000F042F8A3
:1015E0001321002000F03EF8C021002000F03AF85E
:1015F0000548001F006840F004000349091F086007
:101600001920FFF727FA10BD1408014070B50446F1
:101610001348006840F00400114908601920FFF7E2
:1016200019FAA021032000F067F80021062000F03D
:1016300063F8002505E02146042000F05DF8681CF1
:10164000C5B2202DF7DB0648001F006840F00400FB
:101650000349091F08601920FFF7FCF970BD00005D
:101660001408014070B504460D46012C1FD12148D5
:10167000006840F001001F4908601920FFF7EAF9EF
:101680001C48001F006840F002001A49091F08604A
:101690001920FFF7DFF91748001F006840F001002C
:1016A0001449091F08601920FFF7D4F91CE01148FC
:1016B000006840F001000F4908601920FFF7CAF9DF
:1016C0000C48006840F002000A4908601920FFF742
:1016D000C1F90848001F006840F001000549091FD2
:1016E00008601920FFF7B6F92946082000F004F831
:1016F00070BD0000140C014070B505460C46002674
:101700002FE01948006840F00100174908601920CF
:10171000FFF7A0F904F0800058B11348001F0068DB
:1017200040F002001049091F08601920FFF792F9E4
:1017300008E00D48006840F002000B4908601920DD
:10174000FFF788F90848001F006840F001000649CB
:10175000091F08601920FFF77DF96006040E701C50
:10176000C6B2AE42CDDB70BD140C014008B50320FB
:10177000ADF8000010208DF8030003208DF8020062
:1017800069460848FFF713FB0420ADF8000010205D
:101790008DF8030003208DF8020069460248FFF728
:1017A00006FB08BD000C01400008014010B5FFF722
:1017B000CDFD2448C27C244801782448007800F0FC
:1017C00021FD2048827C224801782248007800F0E0
:1017D00019FD1C48C27A204801782048007800F0A2
:1017E00011FD1848827B1E4801781E48007800F0E1
:1017F00009FD1D4802781D4801781D48007800F059
:1018000001FD1948C27B1B4801781B48007800F095
:10181000F9FC1548027E194801781948007800F053
:10182000F1FC1148027E174801781748007800F053
:10183000E9FC0D480278154801781548007800F059
:10184000E1FC10BD600000201C0100201B010020F5
:101850001E0100201D010020200100201F0100208A
:1018600022010020210100207B0000202501002012
:10187000240100202701002026010020290100204A
:10188000280100202B0100202A0100202D0100202A
:101890002C01002070B5324800780A2190FBF1F04D
:1018A000C4B22F48007890FBF1F201FB1200C5B2E0
:1018B000FFF74CFD2B48C1782B48007800F07CFCEA
:1018C0002A48027D2A4801782A48007800F09AFCCC
:1018D0002648827D284801782848007800F092FC4C
:1018E0002748025D274801782748007800F08AFCE5
:1018F0002348425D254801782548007800F082FCA5
:101900002448027C244801782448007800F07AFCBE
:101910002048427D224801782248007800F072FC7D
:101920001C488278204801782048007800F06AFC42
:101930001848027D1E4801781E48007800F062FCBD
:101940001448427C1C4801781C48007800F05AFC7E
:101950004FF4FA60FFF78BF800201949087070BD4A
:101960004E0000200F0100202F0100206000002009
:101970001C0100201B0100201E0100201D01002071
:1019800096000020200100201F01002022010020DD
:10199000210100207B0000202501002024010020DF
:1019A0002701002026010020290100202801002015
:1019B0002B0100202A0100202D0100202C010020F5
:1019C0004D00002070B50446322C63DD204604EB48
:1019D000D0714910A4EB4101002958D1FF22584889
:1019E00001785848007800F00DFCFF225648017835
:1019F0005648007800F006FCFF225548017855480B
:101A0000007800F0FFFBFF2253480178534800782C
:101A100000F0F8FBFF215248007800F0CDFBFF22D8
:101A2000504801785048007800F0ECFBFF224F4806
:101A300001784F48007800F0E5FBFF224D4801781F
:101A40004D48007800F0DEFBFF224C4801784C48FE
:101A5000007800F0D7FBFF224A4801784A48007816
:101A600000F0D0FBFF214948007800F0A5FBFF21E2
:101A70004748007800F0A0FBFF214648007800F0BE
:101A80009BFBFF214448007800F096FB56E0FFF7EF
:101A90005DFC53E0FFF75AFC4048C27C28480178BF
:101AA0002848007800F0AEFB3C48827C264801784C
:101AB0002648007800F0A6FB3848C27A244801780E
:101AC0002448007800F09EFB3448827B224801784D
:101AD0002248007800F096FB3148827A214801784C
:101AE0002148007800F08EFB2D48827A1F4801784B
:101AF0001F48007800F086FB2948827A1D4801784B
:101B00001D48007800F07EFB0A2094FBF0F0244989
:101B10000D5C2A46194801781948007800F072FBDC
:101B20000A2094FBF0F100FB11401D490D5C2A4690
:101B3000144801781448007800F064FB70BD000080
:101B40001C0100201B0100201E0100201D0100209F
:101B5000200100201F01002022010020210100207F
:101B6000230100202501002024010020270100205E
:101B70002601002029010020280100202B0100203F
:101B80002A0100202D0100202C0100202E01002020
:101B9000310100202F0100203001002060000020D2
:101BA000A100002010B50E480078012806D00228B8
:101BB00007D0032808D004280CD108E002F016FC56
:101BC0000BE000F00FF808E0FFF764FE05E0FFF718
:101BD00053FC02E000F05EFB00BF00BF10BD000040
:101BE0004D00002070B5FA4800780A2190FBF1F012
:101BF000C4B2F748007890FBF1F201FB1200C5B2C5
:101C0000F448C178F448007800F0D6FAF348027D31
:101C1000F3480178F348007800F0F4FAEF48827D49
:101C2000F1480178F148007800F0ECFAF048025DE4
:101C3000F0480178F048007800F0E4FAEC48425DA2
:101C4000EE480178EE48007800F0DCFAED480078C4
:101C5000002832DDEC480078EC490A5CEC48017859
:101C6000EC48007800F0CEFAE7484078E7490A5C93
:101C7000E9480178E948007800F0C4FAE248807841
:101C8000E2490A5CE6480178E648007800F0BAFAD2
:101C9000DD48C078DD490A5CE3480178E348007814
:101CA00000F0B0FAD8480079D8490A5CE0480178D9
:101CB000E048007800F0A6FA62E2DF48007830B130
:101CC000012873D002286FD003286ED146E1DB498A
:101CD000087800EBD0714910A0EB410179BB0022DC
:101CE000CB480178CB48007800F08CFAC6484078A1
:101CF000C6490A5CC8480178C848007800F082FAF2
:101D0000C1488078C1490A5CC5480178C548007857
:101D100000F078FABC48C078BC490A5CC248017837
:101D2000C248007800F06EFAB7480079B7490A5CFB
:101D3000BF480178BF48007800F064FA32E0FFE75E
:101D4000B1480078B1490A5CB1480178B1480078DF
:101D500000F058FAAC484078AC490A5CAE480178CB
:101D6000AE48007800F04EFAA7488078A7490A5C90
:101D7000AB480178AB48007800F044FAA248C0783C
:101D8000A2490A5CA8480178A848007800F03AFA0D
:101D90009D4800799D490A5CA5480178A5480078CE
:101DA00000F030FAEBE101E06CE07CE1A349087857
:101DB00000EBD0714910A0EB410179BB924800784B
:101DC00092490A5C924801789248007800F01AFA29
:101DD0000022914801789148007800F013FA8A486F
:101DE00080788A490A5C8E4801788E48007800F035
:101DF00009FA8548C07885490A5C8B4801788B4888
:101E0000007800F0FFF98048007980490A5C884832
:101E100001788848007800F0F5F932E0FFE77A4869
:101E200000787A490A5C7A4801787A48007800F0AC
:101E3000E9F97548407875490A5C77480178774830
:101E4000007800F0DFF97048807870490A5C7448C7
:101E500001787448007800F0D5F96B48C0786B4978
:101E60000A5C714801787148007800F0CBF9664847
:101E7000007966490A5C6E4801786E48007800F087
:101E8000C1F97CE16D49087800EBD0714910A0EBF5
:101E9000410179BB5C4800785C490A5C5C48017888
:101EA0005C48007800F0AEF95748407857490A5C22
:101EB000594801785948007800F0A4F900225848A0
:101EC00001785848007800F09DF94F48C0784F4994
:101ED0000A5C554801785548007800F093F94A4863
:101EE00000794A490A5C524801785248007800F06B
:101EF00089F932E0FFE74448007844490A5C4448E5
:101F000001784448007800F07DF93F4840783F4927
:101F10000A5C414801784148007800F073F93A487A
:101F200080783A490A5C3E4801783E48007800F0E3
:101F300069F93548C07835490A5C3B4801783B4827
:101F4000007800F05FF93048007930490A5C384881
:101F500001783848007800F055F910E137490878E1
:101F600000EBD0714910A0EB410179BB2648007805
:101F700026490A5C264801782648007800F042F994
:101F80002148407821490A5C234801782348007899
:101F900000F038F91C4880781C490A5C2048017818
:101FA0002048007800F02EF900221F4801781F48D1
:101FB000007800F027F91448007914490A5C1C489D
:101FC00001781C48007800F01DF96BE038E0000053
:101FD0004E0000200F0100202F0100206000002093
:101FE0001C0100201B0100201E0100201D010020FB
:101FF00096000020200100201F0100202201002067
:1020000021010020410000204F000020A1000020FD
:1020100025010020240100202701002026010020A6
:1020200029010020280100202B0100202A01002086
:102030002D0100202C010020560000201600002059
:102040005048007850490A5C504801785048007860
:1020500000F0D8F84B4840784B490A5C4D4801786D
:102060004D48007800F0CEF84648807846490A5C32
:102070004A4801784A48007800F0C4F84148C078DE
:1020800041490A5C474801784748007800F0BAF8AF
:102090003C4800793C490A5C44480178444800784F
:1020A00000F0B0F86BE04349087800EBD0714910BC
:1020B000A0EB410179BB3348007833490A5C3348CF
:1020C00001783348007800F09DF82E4840782E497A
:1020D0000A5C304801783048007800F093F82948CD
:1020E000807829490A5C2D4801782D48007800F055
:1020F00089F82448C07824490A5C2A4801782A488B
:10210000007800F07FF800222848017828480078FD
:1021100000F078F832E0FFE71A4800781A490A5CC4
:102120001A4801781A48007800F06CF81548407891
:1021300015490A5C174801781748007800F062F8E2
:102140001048807810490A5C1448017814480078D7
:1021500000F058F80B48C0780B490A5C1148017828
:102160001148007800F04EF80648007906490A5CEC
:102170000E4801780E48007800F044F800BF00BF18
:1021800070BD00004F000020A100002025010020AC
:102190002401002027010020260100202901002021
:1021A000280100202B0100202A0100202D01002001
:1021B0002C0100201600002070B504460D46104882
:1021C000006840F004000E4908601920FEF742FC48
:1021D000A0210320FFF790FA21460620FFF78CFA92
:1021E00029460420FFF788FA0548001F006840F0E0
:1021F00004000349091F08601920FEF72BFC70BD7D
:102200001408014070B505460E4614462048006883
:1022100040F004001E4908601920FEF71BFCA021B5
:102220000320FFF769FA29460620FFF765FA2146E1
:102230000420FFF761FA1648001F006840F0040010
:102240001349091F08601920FEF704FC10480068B4
:1022500040F004000E4908601920FEF7FBFBA021A6
:102260000320FFF749FA31460620FFF745FA200719
:10227000010E0420FFF740FA0548001F006840F0F7
:1022800004000349091F08601920FEF7E3FB70BD35
:102290001408014010B5002160480078FFF78CFF5A
:1022A0005F48007838B15E480078022803D05C4867
:1022B0000078032832D15B485B490978405C5B4970
:1022C0000A5C5B4801785B480078FFF79BFF5A483F
:1022D00055490978405C55490A5C58480178584886
:1022E0000078FFF78FFF57484F490978405C4F4906
:1022F0000A5C5548017855480078FFF783FF544839
:1023000049490978405C49490A5C52480178524879
:102310000078FFF777FF02F0FDF878E0404800789A
:10232000012874D14148827D4148017841480078B4
:10233000FFF768FF3D48827D4048017840480078BB
:10234000FFF760FF3948827D3F4801783F480078B9
:10235000FFF758FF3548827D3E4801783E480078B7
:10236000FFF750FF00223D4801783D480078FFF715
:1023700049FF00223B4801783B480078FFF742FFC5
:1023800000223A4801783A480078FFF73BFF0022E4
:102390003848017838480078FFF734FF0022374882
:1023A000017837480078FFF72DFF3648827D2B48AB
:1023B00001782B480078FFF725FF3248827D2948B5
:1023C000017829480078FFF71DFF2E48827D2748B5
:1023D000017827480078FFF715FF2A48827D2548B5
:1023E000017825480078FFF70DFF2648827D2348B5
:1023F000017823480078FFF705FF00212248007884
:10240000FFF7DAFE002121480078FFF7D5FE2048CB
:10241000017820480078FFF7CFFE10BD230100208F
:1024200034000020AC0000203E00002060000020AE
:102430001C0100201B010020C30000201E01002001
:102440001D010020DA000020200100201F010020D3
:10245000F1000020220100202101002025010020A0
:10246000240100202701002026010020290100204E
:10247000280100202B0100202A0100202D0100202E
:102480002C0100207B000020310100202E010020C3
:102490000F0100202F01002008B50320ADF8000037
:1024A00010208DF8030003208DF8020069460848CB
:1024B000FEF77DFC3020ADF8000010208DF8030001
:1024C00003208DF8020069460248FEF770FC08BD43
:1024D000000801400010014010B501F080FAFEF73D
:1024E000CBFB4FF47A70FEF7C2FAFEF74DF901F01C
:1024F00007FEFFF7D1FFFEF7E9FDFEF7AFFFFDF79F
:10250000E3FEFEF751F8FEF755FD4FF4165001F0CB
:1025100069FC4FF4E13001F0C1FBFEF72FFD10BD67
:102520002DE9F0414FF6FF777148007801287CD102
:102530007048007870490978884277D106216D4843
:1025400002F0B6FA04466B4880796A49C97940EAD4
:102550000121A142F1D168480078684908706548B6
:10256000407848706348C0786249897840EA01271A
:1025700017B1082F7ED16AE0082060498870604951
:10258000098888B2C11700EB1161090A5B4AD17052
:102590005B49098888B2C11700EB11610912A0EBF1
:1025A000012111715748006802F0FEFE86B2F01753
:1025B00006EB1060000A514948715248006802F069
:1025C000F3FE86B2F01706EB10600012A6EB0020B7
:1025D0004A4988714A4D15F8010BC87115F8010B6D
:1025E000087215F8010B487215F8010B88720B215F
:1025F000424802F05DFA04462046E11704EB1161FF
:102600000912A4EB01213D4AD172E11704EB1161DB
:10261000090A11734FF480713B48FEF755FCFEF731
:102620001FFA00203949087001E05FE05BE040F2EA
:102630002771374801F02DFC8021354801F020FC3E
:10264000012240F22771324801F075FC4AE008206F
:102650002A4988702F480078C8702F480078087180
:102660002E4800784871002088712D4D15F8010B17
:10267000C87100E035E015F8010B087215F8010B80
:10268000487215F8010B88720B211C4802F010FAF1
:1026900004462046E11704EB11610912A4EB012165
:1026A000164AD172E11704EB1161090A11734FF454
:1026B00080711548FEF708FCFEF7D2F90020134997
:1026C000087040F22771124801F0E3FB80211048A6
:1026D00001F0D6FB012240F227710D4801F02BFCDE
:1026E00000E000BF00BF002001490870BDE8F08194
:1026F0002A000020200000202B000020482100207C
:10270000440000201C000020000801402900002097
:10271000003801403E0000203F000020340000202F
:102720003000002010B500220121044801F0A1F979
:102730000021024801F080F910BD000000100040A7
:1027400010B50121084801F071F90021064801F097
:102750009CF901221146044801F08BF9012102483D
:1027600001F06AF910BD00000010004010B5002112
:102770004FF0006000F048F84FF4806000F03AF845
:1027800010BD000070B5002100230F22C47804B3EF
:10279000154C246804F4E064C4F5E064210AC1F136
:1027A0000403CA40447804FA03F1847814402143B6
:1027B00009010E4C0678A155047804F01F05012488
:1027C000AC4005786D11AD0005F1E025C5F800417C
:1027D00009E0047804F01F050124AC40044D06789C
:1027E000761145F8264070BD0CED00E000E400E0F5
:1027F00080E100E002490143024A11607047000095
:102800000000FA050CED00E0024A0A400243024BC8
:102810001A60704780FFFF1F08ED00E0704700005E
:1028200001460020034A506820F4404008435060AD
:10283000704700000010024029B1064A5269024365
:10284000044B5A6104E0034A52698243014B5A61C6
:10285000704700000010024029B1064AD2690243C5
:10286000044BDA6104E0034AD2698243014BDA6126
:10287000704700000010024029B1064A92690243E5
:10288000044B9A6104E0034A92698243014B9A61C6
:10289000704700000010024010B500F035F84FF40A
:1028A000803000F0F3F800F051F90446012C25D1F6
:1028B0001020FEF79DF90220FEF7ECF9002000F051
:1028C000D9F8002000F016F94FF4A06000F006F9E6
:1028D0004FF4E011200400F01FF9012000F016F978
:1028E00000BF392000F0A0F80028FAD0022000F044
:1028F00021F900BF00F0B6F80828FBD101211C2007
:10290000FFF7BAFF10BD00000F48006840F001005B
:102910000D490860084640680C4908400A4948606B
:10292000084600680A4908400749086008460068E8
:1029300020F4802008600846406820F4FE004860CB
:102940004FF41F0088607047001002400000FFF83D
:10295000FFFFF6FE30B500210022002400232D4D9C
:102960006D6805F00C0121B1042905D0082923D197
:1029700005E0294D056022E0274D05601FE0254D4B
:102980006D6805F47012234D6D6805F480340225DE
:1029900005EB92421CB9214D554305600BE01D4DDE
:1029A0006D6805F400351DB11C4D5543056002E00E
:1029B000194D5543056002E0174D056000BF00BF8B
:1029C000144D6D6805F0F0010909154D6B5C056843
:1029D000DD4045600F4D6D6805F4E061090A104D5A
:1029E0006B5C4568DD4085600A4D6D6805F460519B
:1029F000C90A0B4D6B5C4568DD40C560054D6D68CF
:102A000005F44041890B074D6B5CC568B5FBF3F5D8
:102A1000056130BD0010024000127A0000093D003F
:102A2000000000201000002010B501460022002305
:102A300000204A11012A02D1094C236806E0022A2B
:102A400002D1074C236A01E0054C636A01F01F02C2
:102A5000012494401C400CB1012000E0002010BD76
:102A6000001002400248406800F00C00704700006F
:102A70000010024001460020034A506820F0F00098
:102A80000843506070470000001002401149096877
:102A900021F480310F4A11601146096821F4802128
:102AA0001160B0F5803F03D0B0F5802F0ED106E065
:102AB0000849096841F48031064A116007E0054978
:102AC000096841F4A021034A116000E000BF00BF83
:102AD00070470000001002407047000001460020CF
:102AE000034A506820F4E0600843506070470000DB
:102AF0000010024001460020034A506820F4605054
:102B000040EAC10050607047001002400149086669
:102B1000704700000000424202460020044B586803
:102B200020F47C1042EA01031843014B58607047BF
:102B30000010024001460020034A506820F00300C4
:102B400008435060704700000010024038B5002074
:102B500000900024002500BF3120FFF765FF0546E7
:102B60000098401C00900098B0F5A06F01D0002D97
:102B7000F2D03120FFF758FF08B1012400E0002413
:102B8000204638BD7047704770470000994800786C
:102B9000002873D09848C078C42872D014DCAA28C2
:102BA0006ED008DCA02822D0A12828D0A2282ED0C0
:102BB000A32872D133E0C02838D0C1283ED0C22823
:102BC00044D0C328F5D14DE0F22867D008DCC528F1
:102BD00065D0E12873D0E22875D0F028E9D17BE0F8
:102BE000F3287DD0FE2869D0FF28E2D16FE00020D5
:102BF000824908708048406881490860E1E002200D
:102C00007E4908707C4840687D490860D9E003200F
:102C10007A4908707848406879490860D1E0012015
:102C200076490870774876490860CAE072480079AA
:102C300075490870052075490870C2E06E48007932
:102C400073490870062071490870BAE06A484079F3
:102C50006949097900EB01206E49088003206B491E
:102C60000870AEE0644840796349097900EB0120BF
:102C700069490880042065490870A2E0A8E000E0E6
:102C800029E05D4840795C49097900EB01206349FE
:102C9000088001205D49087093E091E088E0564883
:102CA00040795549097900EB01205D4908800220EF
:102CB0005649087085E002E005E011E07CE0032061
:102CC000584908707DE003205649087079E00320D8
:102CD0005449087075E074E001205349087070E0B1
:102CE0004548C07900064449897900EB01404249D2
:102CF000497900EB01204049097908444B490860B3
:102D00000846006842F21071B0FBF1F048490870C3
:102D10000846007840F27121484344490968A1EB14
:102D200000104FF47A71B0FBF1F041494870084649
:102D3000007840F2712148433C490968A1EB00103A
:102D40003B49497801EB4102C2EBC111A0EBC10044
:102D50006421B0FBF1F0364988700846007840F2F3
:102D60007121484331490968A1EB00103049497885
:102D700001EB4102C2EBC111A0EBC1002C498978E3
:102D800001EBC10202EB0111A0EB81000A21B0FBB3
:102D9000F1F02749C870254800680A21B0FBF1F21C
:102DA00001FB12002249087102201F49087008E047
:102DB00003201C49087004E000201A49087000E054
:102DC000704700BF00200B4908701A4908800EE0C8
:102DD0001848008842F21071884203DD012007493B
:102DE000087004E013480088401C1249088000BFA6
:102DF000E6E700002E0000205521002034000020CE
:102E0000300000200000C8423E00002040000020AA
:102E10003F0000203A0000203C0000203600002047
:102E2000380000204D000020410000204400002018
:102E30004F0000204800002010B50020084908700D
:102E400040F22771074801F024F88021054801F07D
:102E500017F8012240F22771024801F06CF810BD0A
:102E60002D000020004C004010B517480068C0F34A
:102E7000800018B101201549087002E000201349B4
:102E800008701348007828B910480078012801D14B
:102E9000104908700F48007880B110210E48FEF7E5
:102EA00013F820210C48FEF70DF840F6B830FDF776
:102EB000DEFDFEF7D3FA00200649087003480078CB
:102EC0000349087010BD0000080C01404A000020B2
:102ED0004B0000204C0000200010014010B501F014
:102EE0007FFCFDF79FFB01F0B7F9FFF719FB10BD61
:102EF000704770477047000010B520210848FDF763
:102F0000E1FFFFF7B1FF10210548FDF7DDFF0221CA
:102F10000448FDF7D7FF01210248FDF7D3FF10BD9C
:102F2000001001400008014010B500F001F810BD8C
:102F30000CB50020019000903348006840F48030C8
:102F40003149086000BF3048006800F4003000904C
:102F50000198401C0190009818B90198B0F5A06F35
:102F6000F1D12948006800F4003010B10120009030
:102F700001E0002000900098012843D12348006818
:102F800040F01000214908600846006820F0030066
:102F900008600846006840F0020008601A4840686F
:102FA000194948600846406848600846406840F44F
:102FB000806048600846406820F47C1048600846FD
:102FC000406840F4E81048600846006840F08070AF
:102FD000086000BF0C48006800F000700028F9D0BD
:102FE0000948406820F003000749486008464068E7
:102FF00040F00200486000BF0348406800F00C0049
:103000000828F9D10CBD0000001002400020024049
:103010002DE9FC47F74800780D285FD2DFE800F083
:103020005E075FC5FEFDFCFBFAF9F8F7F600F24813
:10303000007842F210714843EF49497801EB4102B0
:10304000C2EBC11100EBC101EB48807800EBC0027C
:1030500002EB001001EB8000E749C97801EB810128
:1030600000EB4100E4490979084484B2E348008850
:10307000844230DDE248008800EB8000B4EB400F72
:1030800029DAE0480088844225DADF4804805A20A3
:10309000DE490870A520487000208870E220C870C2
:1030A0002046E11704EB1161090AD84A1171E117B2
:1030B00004EB11610912A4EB0121517100201146AA
:1030C0008871C871087201204872FFF7B5FE0320AD
:1030D000CF49087002E00420CD49087092E3C64849
:1030E000007842F210714843C349497801EB41022C
:1030F000C2EBC11100EBC100BF49897801EBC102ED
:1031000002EB011100EB8100BB49C97801EB8101A1
:1031100000EB4100B8490979084484B2B7480088F7
:1031200084423EDDB648008801F0D6FD0746002205
:10313000B84B01F021FE05460E46204601F0CCFDBD
:103140002A463346CDE9000101F0DAFD29D2AE4826
:103150000088844225DDAB4804805A20AB490870C2
:10316000A520487000208870E120C8702046E11733
:1031700004EB1161090AA54A1171E11704EB116111
:103180000912A4EB01215171002011468871C87108
:10319000087201204872FFF74FFE03209C49087017
:1031A00002E004209A4908702CE39B48007820B183
:1031B000012857D002286DD155E08F48007842F29F
:1031C000107148438C49497801EB4102C2EBC111AF
:1031D00000EBC1008849897801EBC10202EB0111C3
:1031E00000EB81008449C97801EB810100EB4100CB
:1031F00081490979084484B28148008884422DDCE1
:103200005A2082490870A520487008E0C6E291E281
:1032100044E2EBE1D3E1A3E109E155E03DE0002028
:103220008870F020C8702046E11704EB1161090A8C
:10323000764A1171E11704EB11610912A4EB012127
:103240005171002011468871C871087201204872BE
:10325000FFF7F2FD01207049087002E004206C497C
:10326000087018E017E05A2068490870A5204870D7
:1032700000208870F220C8700020087148718871A1
:10328000C871087201204872FFF7D6FD002062491C
:10329000087000E000BF00BFB4E25A205B4908702C
:1032A000A520487000208870FF20C8700020087199
:1032B00048718871C871087201204872FFF7BCFD1F
:1032C0000320534908709DE254480078401C53493C
:1032D000087008460078012802D002287ED153E009
:1032E0004F48B0F8009042F2107099FBF0F042495C
:1032F00008700846007840F271214843A9EB00109D
:103300004FF47A7190FBF1F03B4948700846007821
:1033100040F271214843A9EB00113748407800EB97
:103320004002C2EBC010A1EBC000642190FBF1F0A1
:10333000314988700846007840F271214843A9EB72
:1033400000102D49497801EB4102C2EBC111A0EBFD
:10335000C1002949897801EBC10202EB0111A0EB00
:1033600081000A2190FBF1F02349C8700A20B9FBC3
:10337000F0F100FB1190204908714846FDF708FA6A
:1033800002202349087050E01B48007842F2107177
:1033900048431949497801EB4102C2EBC11100EBE6
:1033A000C1001549897801EBC10202EB011100EB64
:1033B00081001149C97801EB810100EB41000E4900
:1033C000097908441FFA80F91648008881450DDA0A
:1033D0001348A0F80090FDF775FC00E024E0002001
:1033E0000E49087003200A49087002E004200849C9
:1033F00008701AE04E0000204F0000203800002026
:10340000360000203A0000203C0000205F21002010
:103410004D00002000002440410000205700002003
:10342000580000205A00002000BF00BFEAE1F74822
:103430000078401CF549087008460078012802D041
:1034400002287CD153E0F248B0F8009042F21070AC
:1034500099FBF0F0EF4908700846007840F27121BE
:103460004843A9EB00104FF47A7190FBF1F0E94961
:1034700048700846007840F271214843A9EB0010DB
:10348000E449497801EB4102C2EBC111A0EBC10054
:10349000642190FBF1F0DF4988700846007840F223
:1034A00071214843A9EB0010DA49497801EB410248
:1034B000C2EBC111A0EBC101D648807800EBC0027D
:1034C00002EB0010A1EB80000A2190FBF1F0D14942
:1034D000C8700A20B9FBF0F100FB1190CD490871CA
:1034E0004846FDF755F90220CB49087036E0C94837
:1034F000007842F210714843C649497801EB410215
:10350000C2EBC11100EBC100C249897801EBC102D5
:1035100002EB011100EB8100BE49C97801EB81018A
:1035200000EB4100BB49097908441FFA80F9BB4808
:10353000008881450DDDB648A0F8009000E00CE061
:10354000FDF7C0FB0020B14908700320B2490870A4
:1035500002E00420B049087000E000BF00BF51E164
:10356000AC48007842F210714843AA49497801EB0F
:103570004102C2EBC11100EBC100A649897801EB01
:10358000C10202EB011100EB8100A249C97801EBF5
:10359000810100EB41009F490979084484B2FA2C6B
:1035A00009DA002C07DD9E490C70FDF78BFB032028
:1035B0009949087002E004209749087022E14FF40D
:1035C000FA60FDF754FA012080F3138800BF00BFB2
:1035D0009448006800F4E06093490843001D914955
:1035E0000860BFF34F8F00BF00BFFEE74FF480417C
:1035F0008E48FDF769FC4FF400518C48FDF764FCE0
:1036000040F6B830FDF733FA4FF480418748FDF7B4
:1036100059FC4FF400518548FDF754FC40F6B83092
:10362000FDF725FA4FF480418048FDF74DFC4FF43B
:1036300000517E48FDF748FC40F6B830FDF717FA18
:103640004FF480417948FDF73DFC4FF40051774835
:10365000FDF738FC40F6B830FDF709FA4FF4804129
:103660007248FDF731FC4FF400517048FDF72CFC17
:1036700040F6B830FDF7FBF94FF480416B48FDF799
:1036800021FC4FF400516948FDF71CFC40F6B830AE
:10369000FDF7EDF9032060490870B3E04FF0000A30
:1036A00041E05E490D8805EBD5714810FDF770F8D3
:1036B0004FF47A60FDF7DBF958480088FDF768F8A9
:1036C0004FF47A60FDF7D3F9544909884FF6FF7239
:1036D00002EA4100FDF75CF84FF47A60FDF7C7F9A4
:1036E0004E49098801EB410188B2FDF751F84FF4CA
:1036F0007A60FDF7BCF9494909884FF6FF7202EA82
:103700008100FDF745F84FF47A60FDF7B0F94048C5
:103710000088FDF73DF84FF47A60FDF7A8F90AF14B
:10372000010000F0FF0ABAF1020FBADB03203A49A8
:10373000087067E03748007842F210714843354915
:10374000497801EB4102C2EBC11100EBC1003149E4
:10375000897801EBC10202EB011100EB81002D49D8
:10376000C97801EB810100EB41002A49097908443D
:1037700084B20CB1012C0DD11CB900202C49087069
:1037800002E001202A490870FDF79CFA0320224933
:10379000087002E004202049087033E01D480078DA
:1037A00042F2107148431B49497801EB4102C2EBD8
:1037B000C11100EBC1001749897801EBC10202EB8E
:1037C000011100EB81001349C97801EB810100EB85
:1037D000410010490979084484B20CB1012C0DD183
:1037E0001CB900201349087002E00120114908703B
:1037F000FDF768FA03200849087002E00420064932
:10380000087000BF00BFBDE8FC8700005700002023
:103810005A0000204F0000204D00002058000020DA
:103820002B0000200CED00E00000FA050010014024
:103830005C0000205D00002010B51348006840F0D7
:1038400001001149086008464068104908400E49C7
:103850004860084600680E4908400B490860084661
:10386000006820F4802008600846406820F4FE00CC
:1038700048604FF41F008860FFF756FB4FF0006070
:103880000449086010BD0000001002400000FFF86D
:10389000FFFFF6FE08ED00E0704770477047704785
:1038A0007047000010B50121880700F0D1F8012809
:1038B0001CD10121800700F0BCF87F2000F018FC2B
:1038C00000F00EFC0A480078401C094908700846C0
:1038D00000780A280ADB07480078401C0549087070
:1038E00000200349087001200349087010BD000042
:1038F0001400002016000020170000200EB5012142
:103900000846FEF7A9FF40F25720ADF8040041F247
:103910006F70ADF800000020ADF80600ADF80200B1
:1039200069464FF0804000F0B3F8012241F2707117
:10393000900700F0A7F801221146900700F099F8CF
:103940000121880700F078F80EBD70477047704776
:1039500010B50121084800F07BF801280BD10121A6
:10396000054800F066F8FEF7DDFE01200349087007
:1039700000200349087010BD001000402A000020FC
:10398000280000200EB501211020FEF765FF502011
:10399000ADF804004FF4E160ADF800000020ADF890
:1039A0000600ADF802006946094800F071F80122EE
:1039B0004FF4E161064800F065F80121044800F089
:1039C00035F800220121024800F053F80EBD000036
:1039D000001000407047704770477047704710B53F
:1039E000FFF78CFFFFF7CEFF00F001F810BD08B520
:1039F0001C208DF8000003208DF8010000208DF8B8
:103A0000020001208DF803006846FEF7BBFE362059
:103A10008DF8000000208DF8010001208DF80200D3
:103A20008DF803006846FEF7ADFE08BDCA4302826A
:103A30007047CA430282704721B1028842F00102F6
:103A4000028004E002884FF6FE731A40028070473D
:103A500030B50246002000230024158A05EA010340
:103A6000958905EA010413B10CB1012000E00020A2
:103A700030BD1AB183890B43838102E083898B4374
:103A8000838170470185828270478184704700007E
:103A9000002202881D4B98420ED01D4B98420BD03D
:103AA000B0F1804F08D01B4B984205D01A4B98427A
:103AB00002D01A4B984204D14FF68F731A404B88AC
:103AC0001A43174B984207D0164B984204D04FF632
:103AD000FF431A40CB881A4302808B8883850B886A
:103AE00003850A4B98420BD0094B984208D00E4BE5
:103AF000984205D00D4B984202D00D4B984201D10F
:103B00000B7A03860123838270470000002C01405A
:103B1000003401400004004000080040000C004058
:103B200000100040001400400040014000440140EB
:103B30000048014010B540F22551524800F0D1F93B
:103B400001286CD140F225514E4800F0A2F94D48B1
:103B500000F0B9FAC4B24C4800780A2858D2DFE81D
:103B600000F0051525262728292A33445A2C07D189
:103B70004648047044480078401C4349087004E0FB
:103B80000020414908704249087047E0A52C07D140
:103B90003E4844703C480078401C3B49087004E0B3
:103BA0000020394908703A49087037E000BF00BF6B
:103BB00000BF00BF00BF344801780078401C324A83
:103BC00010703248445429E04CB930482E490978E5
:103BD00044542D480078401C2B49087004E0002014
:103BE000294908702A49087018E0012C0AD1274891
:103BF00025490978445400202349087001202449AC
:103C0000087004E00020204908702149087005E090
:103C100000201D4908701E49087000BF24E040F2D2
:103C20002771184800F05DF901281DD140F2277175
:103C3000144800F02EF9174800780A280BDA1548C6
:103C400002780078401C134B18701348815C0D48B3
:103C500000F03EFA08E0002240F22771094800F027
:103C60006AF900200B4908700821064800F02CF979
:103C7000012806D10821034800F002F9014800F0AC
:103C800022FA10BD004C00402C00002055210020DD
:103C90002E0000202D0000205F21002038B50446B2
:103CA0000121C804FEF7D8FD01210420FEF7E4FD40
:103CB0004FF40060ADF8000004208DF80300694661
:103CC0001148FDF774F84FF48060ADF80000012052
:103CD0008DF8020018208DF8030069460A48FDF7A8
:103CE00066F82146094800F0B7F940F22551074827
:103CF00000F0CFF8012240F22551044800F01BF9F2
:103D000000F0C3F938BD000000100140004C004035
:103D10007047000010B540F225512C4800F0E1F842
:103D2000012817D140F22551284800F0B2F8274861
:103D300000F0C9F9C4B2FEF703FD25480078082851
:103D400035DA234801780078401C214A1070214858
:103D500044542CE040F227711C4800F0C2F80128BE
:103D600025D140F22771194800F093F81A480078DD
:103D70000D280BDA184802780078401C164B187092
:103D80001648815C114800F0A3F910E0002240F2CF
:103D900027710E4800F0CFF800200F49087002206C
:103DA000FCF765FE4FF480710D48FDF78BF8082194
:103DB000064800F089F8012806D10821034800F0E0
:103DC0005FF8024800F07FF910BD000000380140A4
:103DD0002800002020000020290000204821002089
:103DE0000008014038B50446012144F20100FEF705
:103DF00043FD01210420FEF73FFD4FF48070ADF834
:103E0000000001208DF8020014208DF8030069469F
:103E10001848FCF7CCFF4FF480711648FDF752F8B4
:103E20004FF40070ADF8000018208DF80300012059
:103E30008DF8020069460F48FCF7B9FF4FF4806027
:103E4000ADF8000004208DF8030069460948FCF72E
:103E5000AEFF2146084800F0FFF840F22551064821
:103E600000F017F8012240F22551034800F063F8F2
:103E700038BD00000008014000380140704770471D
:103E800001F40072B2F5007F00D100BFCA43028086
:103E9000704710B50022002340F66A14A14200D1F9
:103EA00000BF0A1201249440A3B2DC43048010BD79
:103EB00021B1828942F40052828104E082894DF668
:103EC000FF731A408281704702460020B1F5007FDF
:103ED00000D100BF13880B400BB1012000E000208F
:103EE000704770B50246002400230025002040F6EC
:103EF0006A16B14200D100BFC1F3421501F01F03A1
:103F0000012606FA03F3012D02D19689334006E01B
:103F1000022D02D1168A334001E0968A33400C12FA
:103F2000012606FA04F41688344013B10CB10120BE
:103F300000E0002070BDF0B50346002400260025F7
:103F4000002040F66A17B94200D100BF1846C1F3FD
:103F5000421401F01F06012707FA06F5012C01D1D2
:103F60000C3004E0022C01D1103000E014301AB102
:103F700007682F43076002E00768AF430760F0BDA2
:103F80002DE9F04786B005460E460024A24600BF44
:103F9000A1460027B08900B100BF2F462C8A4CF6FD
:103FA000FF700440F08804432C82AC894EF6F31075
:103FB0000440B08831890843718908430443AC81C7
:103FC000AC8A4FF6FF400440B0890443AC8201A89C
:103FD000FEF7C0FC1F48874202D1DDF810A001E0C7
:103FE000DDF80CA0A88900F4004040B10AEBCA003B
:103FF00000EB0A1031684900B0FBF1F807E00AEB6A
:10400000CA0000EB0A1031688900B0FBF1F86420A7
:10401000B8FBF0F004012009642101FB1089A88994
:1040200000F4004040B1322000EBC900B0FBF1F0D9
:1040300000F00700044308E0322000EB091064217F
:10404000B0FBF1F000F00F0004432C8106B0BDE896
:10405000F0870000003801407FB505460C4600940B
:104060000020ADF80400ADF80600ADF80800ADF88A
:104070000C000C20ADF80A0069462846FFF780FFC7
:1040800001212846FFF714FF7FBD08B525208DF8D4
:10409000000001208DF8010002208DF802000120AF
:1040A0008DF803006846FEF76DFB34208DF80000A4
:1040B00001208DF801008DF802008DF8030068469C
:1040C000FEF760FB08BD01468888C0F30800704712
:1040D000C1F3080282807047704770477047000044
:1040E0000020014908607047082C0040704700001C
:1040F00000F07F01014A116070470000002C004071
:1041000008B50420ADF8000028208DF80300032036
:104110008DF8020069460348FCF749FE0148083063
:10412000006808BD000C014000F0010181F3138814
:10413000704700002DE9FF5F012003904FF03C0A1B
:104140003DE05046FDF73EFCBAF1320F01DA00F0D7
:104150000BFC6420FCF78BFCFEF718FD4FF461703C
:10416000FCF785FC32480078022824D131480088C9
:1041700000F0B2FD04460D462F4800882D490988FD
:10418000401A2E49098890FBF1FB584600F08DFD3E
:104190004FF066322A4BCDE9000100F0EDFD0646F6
:1041A00022462B4600F0A0FC804600F051FD80B274
:1041B0000290FCF7EDFAAAF1010000F0FF0ABAF153
:1041C000000FBEDC1F480088FF2815D01E4800885D
:1041D000FF2811D016480078FF280DD01B48007822
:1041E000FF2809D015480088FF2805D01848008806
:1041F000FF2801D00020039014E0FDF7D7FA10212A
:104200001448FCF75FFE20211248FCF75DFE0949C7
:104210000C8804EBD4714810FCF7BAFA4FF47A70AA
:10422000FCF725FC03980028E7D1BDE8FF9F0000BC
:104230003E000020580000205A00002036000020D8
:1042400066E634403C0000203A0000203F00002099
:10425000380000200010014010B55D4800780228A9
:104260005DD15C480078022822D15B480078A0B973
:104270005A480078B0B94FF480415948FCF724FE01
:104280000120564908704FF47A70FCF7F0FB4FF4A8
:1042900080415348FCF716FE04E04FF4804150483B
:1042A000FCF712FE4FF400514D48FCF70BFE8EE078
:1042B00048480078032822D14A480078A0B94A48E3
:1042C0000078B0B94FF400514548FCF7FDFD0120DE
:1042D000454908704FF47A70FCF7C9FB4FF4005160
:1042E0003F48FCF7EFFD04E04FF400513C48FCF779
:1042F000EBFD4FF480413A48FCF7E4FD67E0002015
:1043000036490870384908704FF480413448FCF74A
:10431000D9FD4FF400513248FCF7D4FD57E02D4849
:104320000078022844DB2C480078A0B92B4800789C
:10433000B0B94FF480412A48FCF7C6FD0120274957
:1043400008704FF47A70FCF792FB4FF480412448D8
:10435000FCF7B8FD04E04FF480412148FCF7B4FDC0
:104360001C48007803281DD11E480078A0B91E48BB
:10437000007860BB4FF400511948FCF7A5FD0120FF
:10438000194908704FF47A70FCF771FB4FF4005133
:104390001348FCF797FD1AE04FF400511048FCF762
:1043A00093FD14E04FF400510D48FCF78BFD0EE037
:1043B00000200A4908700C4908704FF480410848F1
:1043C000FCF780FD4FF400510548FCF77BFD10BD64
:1043D0003E000020340000205C0000205E00002031
:1043E000001001405D0000205F00002070B53048E3
:1043F00000780A2190FBF1F0C4B22D48007890FBC0
:10440000F1F201FB1200C5B200212A480078FDF745
:10441000D3FE002128480078FDF7CEFE2748C1785A
:1044200027480078FDF7C8FE2648027D2648017817
:1044300026480078FDF7E6FE2248827D2448017870
:1044400024480078FDF7DEFE2348025D234801780A
:1044500023480078FDF7D6FE1F48425D21480178C9
:1044600021480078FDF7CEFE002220480178204840
:104470000078FDF7C7FE00221E4801781E4800782C
:10448000FDF7C0FE00221D4801781D480078FDF7A9
:10449000B9FE00221B4801781B480078FDF7B2FEE8
:1044A00000221A4801781A480078FDF7ABFE70BD6B
:1044B0004E000020310100202E0100200F010020BD
:1044C0002F010020600000201C0100201B010020A3
:1044D0001E0100201D010020960000202001002068
:1044E0001F010020220100202101002025010020C1
:1044F000240100202701002026010020290100209E
:10450000280100202B0100202A0100202D0100207D
:104510002C0100202DE9FF5F9B48D0F800909B48BC
:10452000008800F079FF8246494600F089FF04D2F6
:104530009648008800F070FF81469549484600F093
:1045400071FE824600F030FFC4B24FF47A7104FB72
:1045500001F000F049FF4946039001F0A2F88346BC
:104560008C4900F05FFE824600F01EFFC5B2642158
:1045700005FB01F000F038FF4FF47A71029004FB64
:1045800001F000F031FF4946019001F08AF88346BE
:10459000029901F091F88049039000F043FE8246B1
:1045A00000F002FFC6B206EB8601480000F01CFFD7
:1045B0006421039005FB01F000F016FF4FF47A71BF
:1045C000029004FB01F000F00FFF4946009001F05B
:1045D00068F80190029901F06FF88346039901F0A1
:1045E0006BF8824600F0E0FEC7B26B49484600F027
:1045F0005BFF824600F0D8FE0A21B0FBF1F201FB1E
:104600001208002C7ED1002D54D14EBB6348827A13
:104610006348017863480078FDF7F4FD5F48827ACB
:104620006148017861480078FDF7ECFD5B48827ACB
:104630005F4801785F480078FDF7E4FD5748C25DA8
:104640005D4801785D480078FDF7DCFD534810F8BF
:1046500008205B4801785B480078FDF7D3FD7EE0D9
:104660004E48827A4E4801784E480078FDF7CAFDE0
:104670004A48827A4C4801784C480078FDF7C2FDE0
:104680004648825D4A4801784A480078FDF7BAFDFD
:104690004248C25D4848017848480078FDF7B2FDBD
:1046A0003E4810F808204648017846480078FDF753
:1046B000A9FD54E03948827A3948017839480078B0
:1046C000FDF7A0FD3548425D37480178374800784E
:1046D000FDF798FD3148825D35480178354800780E
:1046E000FDF790FD2D48C25D3348017833480078CE
:1046F000FDF788FD294810F8082031480178314835
:10470000007800E002E0FDF77DFD28E02348025D2F
:104710002348017823480078FDF774FD1F48425D67
:104720002148017821480078FDF76CFD1B48825D27
:104730001F4801781F480078FDF764FD1748C25DE7
:104740001D4801781D480078FDF75CFD134810F8FE
:1047500008201B4801781B480078FDF753FD1A48D4
:104760001A4A1278815C1A480078FDF725FD19482D
:10477000C17819480078FDF71FFD0021174800781F
:10478000FDF71AFDBDE8FF9F300000203600002035
:1047900000007A440000C84200002041A10000202F
:1047A00025010020240100202701002026010020EF
:1047B00029010020280100202B0100202A010020CF
:1047C0002D0100202C010020160100203F000020B8
:1047D000310100200B0100202E01002030010020BB
:1047E00010B553480078022850D15248007801286B
:1047F00010D110215048FCF765FB20214E48FCF7F2
:1048000063FB01214D48FCF75DFB02214B48FCF79F
:1048100059FB8BE04748007878B910214648FCF7EF
:1048200053FB20214448FCF74DFB01214348FCF792
:1048300049FB02214148FCF745FB3E48007802282D
:104840000FD110213C48FCF73FFB20213A48FCF7F0
:1048500039FB01213948FCF735FB02213748FCF7C9
:1048600033FB34480078032860DB10213248FCF722
:104870002BFB20213048FCF725FB01212F48FCF7BA
:1048800023FB02212D48FCF71DFB4FE0294800784F
:10489000012810D110212848FCF714FB20212648BC
:1048A000FCF712FB01212548FCF70CFB02212348F1
:1048B000FCF708FB3AE01F48007878B910211E4841
:1048C000FCF702FB20211C48FCF7FCFA01211B48E5
:1048D000FCF7F8FA02211948FCF7F4FA15480078B9
:1048E00002280FD110211448FCF7EEFA20211248BB
:1048F000FCF7E8FA01211148FCF7E4FA02210F481D
:10490000FCF7E2FA0B48007803280FDB10210A4875
:10491000FCF7DAFA20210848FCF7D4FA012107480D
:10492000FCF7D2FA02210548FCF7CEFA10BD0000D0
:104930003E0000203400002000100140000801402B
:10494000FBF7D6FEFEF7D8FAFFF7F4FB0BE0FCF717
:10495000C1FAFEF789FAFEF719F9FEF7BFFAFDF77B
:1049600021F9FCF7C1FBF2E710B54E4800780728A3
:1049700078D2DFE800F0041B324960788F005A20BB
:1049800049490870A520487000208870C420C8706C
:104990000020087148718871C8710872012048723E
:1049A000002042490870FEF747FA78E05A203E4955
:1049B0000870A520487000208870C520C8700020AD
:1049C000087148718871C87108720120487200200E
:1049D00036490870FEF730FA61E05A203249087013
:1049E000A520487000208870C220C870002008717F
:1049F00048718871C87108720120487200202B49E3
:104A00000870FEF719FA4AE05A2027490870A520D5
:104A1000487000208870C320C87000200871487159
:104A20008871C87108720120487200201F490870FF
:104A3000FEF702FA33E05A201B490870A52048709F
:104A400000208870C020C8700020087148718871EB
:104A5000C871087201204872002014490870FEF7DE
:104A6000EBF91CE01AE05A200F490870A5204870A5
:104A700000208870C120C8700020087148718871BA
:104A8000C871087201204872002008490870FEF7BA
:104A9000D3F904E006200549087000E010BD00BF0E
:104AA00000BFFBE7400000205F2100202D00002018
:104AB00070B502460C46FF25FF2309E012F8010BF2
:104AC00080EA03010648405C80EA05030548455C2E
:104AD000201EA4F10106F4B2F0D143EA052070BD16
:104AE000A2570008A258000810B591EA030F48BF6A
:104AF00083F0004300F14682841A71EB030C05D267
:104B0000121943EB0C03001B61EB0C01DFF824E1ED
:104B10004FEA1154A4EB135C1EEA430F18BF9EEA40
:104B2000445F73D023EA0E03DCF1200E21EA045126
:104B300043F4801332D322FA0CFE10EB0E0023FA5A
:104B40000CFE41EB0E01CCF1200E03FA0EFE10EB31
:104B50000E0051F10001B1F5801FCCF1200E32D2D0
:104B600001EB045112FA0EF2BDE8104058BF704735
:104B7000401C38BF5FEA420218BF7047002814BFCC
:104B800020F0010041F100014FEA410313F5001F3D
:104B900038BF7047A1F1C04100F0E6B9012A43EBEC
:104BA0000302ACF1200CDCF11F0E32BF4FF0000EFF
:104BB00023FA0CF310EB030041EB0451B4EB115F4B
:104BC000D0D0A1EB045101F5801149085FEA300013
:104BD00001EB04510ED350F1000038BF12FA0EFE63
:104BE00008D1BDE81040C9E7401C38BF5FEA420267
:104BF000CAD1C3E7BDE810404FEA410313F5001FD7
:104C000038BF7047A1F1C04100F0AEB99EEA445FE1
:104C100008D011EA5E0FBDE8104004BF01F000416A
:104C200000207047BDE8104070B500F04FF900BF9C
:104C300064FBBE3E0000E0FF491058BFC1F1404197
:104C40005B1058BFC3F140438B42EFF300807047C5
:104C50004FEA1153A3F58063D3F11E03A8BFD3F12C
:104C6000200C08DB4FF0004242EAC12252EA5052C7
:104C700032FA03F0704709420BD4102BC4BF002056
:104C8000704703F5787CBCF1FF3F05D04FF0FF3053
:104C900070474FF00000704770B500F017F900BF83
:104CA0004992248000207047F0E710F0004248BF8E
:104CB0004042B0FA80F310FA03F10AD0C3F11D03A9
:104CC00003F580634FEA415002EB035202EBD1211E
:104CD00070474FF000007047B0FA80F310FA03F10C
:104CE0000AD0C3F11D0303F580634FEA41504FEA38
:104CF000035202EBD12170474FF0000070470000D3
:104D000051EA030C17D41CF5801F58BFBCF5801F57
:104D100000F10680994218BF704708BF9042704763
:104D200007D711F5801F58BF13F5801F19D499427A
:104D30007047894270471CF5801F08D5BCF5801F5D
:104D4000F7D58B4218BF704708BF824270474FF4B7
:104D5000001C1CEB410F38BF1CEB430F01D28B42F0
:104D6000704770B500F0B2F8922449004FF000513E
:104D70004FF08053FFF760BFDFF848C170B51CEA01
:104D8000111E1EBF1CEA13159EEA0C0F95EA0C0FAC
:104D900000F06F8081EA030423EA4C134EEAD47ECC
:104DA00021EA4C1141F4801143F48013AE44A1FB7D
:104DB000024CA0FB0365AEF17F7E361955EB0C0566
:104DC000A1FB034C4CF10003A0FB021C16EB0C06EC
:104DD000654153F10003094218BF46F0010613F480
:104DE000007F0BD14FEA03314FEA0530340341EA2B
:104DF000155140EA16506FF003020AE04FEAC32152
:104E00004FEAC520F40241EA555140EA56506FF08E
:104E1000020202EB2E4201EB025585EACE710AD066
:104E20005FEA440C18BF24F0004450F1000041F147
:104E3000000120EAD47040F2FE7C624500D270BDD1
:104E4000A84214BF4FF080444FF04044002E08BFEA
:104E50000024BEF1806FA8BFA1F1C041BDE8704041
:104E600080F282804FF0000001F1C04101F000416A
:104E700070479EEA0C0F0CEA131518BF95EA0C0F49
:104E800006D04FF0000081EA030E0EF0004170BD25
:104E900000F01CF88900013E00F007B800F009B8E6
:104EA0004FEA430C5FEA5C5C08D081EA030100F042
:104EB0005BB84FEA410C5FEA5C5CF6D14FF0000052
:104EC000014970470000FF070000F87F0EF1020E55
:104ED0002EF0030E5EF8046B364205D4012A43EB34
:104EE000030515F5001F12D8012841EB010C1CF534
:104EF000001F0CD80ED14FEAD17C15F5001F0CEB2A
:104F00004C0C0CF1020C08BF4CEBD37C04E04FF0CE
:104F1000080C01E04FEAD37C0CEB4C0526FA05F6B1
:104F200006F00706B6F1040C06D20EEB860CBDE8BF
:104F300070404CF0010C6047DFE80CF0090B0202F6
:104F40004FF000414FF00000A1F5002170BD19465F
:104F50001046012851EB010418BFD4F5001484BF9A
:104F6000002001F0004170BD0808A0F500114FEAD3
:104F70003101704710B591EA030F48BF83F0004339
:104F80003FF5BAAD841A71EB030C07D212198CF0FD
:104F9000004C43EB0C03001B61EB0C01DFF8A4E1B8
:104FA0004FEA1154A4EB135C1EEA430F18BF9EEAAC
:104FB000445F00F0B08023EA6E03524221EA0451BC
:104FC000C3EB6E0338BF5B1EDCF1200E25D322FA43
:104FD0000CFE10EB0E0043FA0CFE41EB0E01CCF17F
:104FE000200E03FA0EFE10EB0E0051F10001CCF181
:104FF000200E29D412FA0EF201EB0451BDE8104044
:1050000058BF7047401C1CBFB2F1004F70470028CA
:105010000CBF491C20F00100704712EB020E43EB5D
:10502000030218BF4FF0010E4EEA4202ACF1200C11
:10503000DCF11E0E54D943FA0CFE10EB0E0051F1B8
:10504000FF31CCF11E0ED5D50EF1010E12FA0EFE77
:10505000404141EB010101EB445C5FEA5C5C10D92B
:1050600010EBDE7001EB045138BFBEF1004FBDE81C
:10507000104018BF704700280CBF491C20F00100E9
:10508000704730D24FEAD42C11F5001124F400649B
:105090001BD0B1FA81F20B3AA41AA41ED2F120035C
:1050A000914030FA03F31943904001EBCC71002C8E
:1050B00001EB0451BDE81040A8BF704701F1C041A9
:1050C0004FF0000001F000417047B0FA80F310FA91
:1050D00003F100D110BDE41A173C4805C90AE4E702
:1050E00001EB045110BD491001EB0451BDE8104023
:1050F0004FEA300002E04FF0000170474A0008BF5D
:105100000042F8D0B2F5001F28BF704701F00041FF
:105110004FF0000070479EEA445F07D011EA5E0F2F
:10512000BDE8104004BF002100207047BDE81040DA
:1051300070B5FFF7CBFE00BF40DFF63E83F00041C5
:10514000104670470000E0FF90EA010F48BF81F071
:10515000004100F1B882421A3CBF801A89184FEA18
:10516000D0524FF07F4C1CEA410FA2EBD15318BF35
:105170009CEA026F00F03B804FF0004C4CEA0020AC
:105180004CEA012121FA03FC10EB0C0C1ED202F1B7
:10519000FF325FEA1C2040EBC25038BF70471CF062
:1051A0007F0F4FEA400C18BFBCF17F4F38BF7047EC
:1051B000C3F12003994008BF20F00100BCF17F4FEC
:1051C00038BF7047A0F1C04000F035BA4FEA3C004C
:1051D000000A40EBC25028BF1CF0FF0F4FEA400C02
:1051E000E6D018BFBCF17F4F38BF7047EAE79CEAB2
:1051F000026F05D010EA5C0F08BF00F00040704756
:1052000010B500F0D2F900BF64FBBE3E401058BF9D
:10521000C0F14040491058BFC1F140418142EFF315
:10522000008070474FF47F0C1CEAD0121EBF1CEAAE
:10523000D11392EA0C0F93EA0C0F00F0858090EAEC
:10524000010F48BF42F4807240F4000C41F40000AA
:105250002CF07F4120F07F4000B58142A2EB030299
:105260000FF2081CACEB504EC0F100009EF800E0BD
:105270004FEA4E0E00FB0EFC38BF49004FEA2C1CD3
:1052800002F5FA020CFB0EF34FEACE1E4FEA112C88
:105290004FEAC1210EEB635E42EB22420EFB0CFC97
:1052A0004FEA1C5300FB03114FEA112C4FEA013166
:1052B0000EFB0CFC4FEADC4C00FB0C11C14228BF7A
:1052C00009184CEB03335DF804EB10EB410143EBA1
:1052D000C250B2F57C0F38BF704729D512F0F00FDD
:1052E0001CBF00F1C04000F0004070470081828385
:1052F0008485868788898B8C8D8E8F9192939596E5
:1053000097999A9C9D9FA0A2A3A5A7A8AAACAEB06E
:10531000B2B3B5B7B9BCBEC0C2C5C7C9CCCED1D473
:10532000D7D9DCDFE2E6E9ECF0F3F7FAFE000000A3
:105330004FEA400C0CF1807CBCF17E4F28BF7047D7
:10534000B0F1C04000F077B990EA010F0CEAD11338
:1053500048BF42F48072624538BF634507D213F4F8
:105360007F0F16D080EA010000F00040704710B5B2
:1053700000F01BF9097EFC3E00F005B880EA010050
:1053800000F00040704780EA010000F0004000F0AB
:1053900052B912F47F0F04BF0248704780EA01003F
:1053A00000F049B90000C07FC10DD1F19E0206DBBB
:1053B0004FEA002343F0004323FA02F07047004213
:1053C00007D54FEA4001B1F1FE4F02D24FF0000085
:1053D000704710B500F0E9F849922480002070472A
:1053E0006FEA20007047000010F0004148BF4042C3
:1053F000B0FA80F310FA03F2C3F19D030BD051EA27
:10540000C35101EB1220530638BF704700F1010071
:1054100008BF20F001007047B0FA80F310FA03F2E1
:10542000C3F19D030AD0D90501EB1220530638BF02
:10543000704700F1010008BF20F001007047000034
:1054400050EA010C00F113801CF5000F58BFBCF5A9
:10545000000F01D48842704707D710F5000F58BFDE
:1054600011F5000F15D488427047894270471CF52A
:10547000000F04D5BCF5000FF7D5814270474FF0FF
:10548000807C1CEB400F38BF1CEB410F01D28142E6
:10549000704710B500F089F8922449004FF0005091
:1054A0004FF08051FFF7B2BE4FF47F0C1CEAD012D0
:1054B0001EBF1CEAD11392EA0C0F93EA0C0F00F006
:1054C000478090EA010F48BF42F480724FF0004CD1
:1054D0004CEA00204CEA012102EB0302A0FB01137D
:1054E000A2F50002002918BF43F001035B0028BFAA
:1054F0004FEA330342EB22425FEA132C4CEBC250DB
:105500002EBFBCEB436FB2F57C0F70474FEA036CC4
:10551000BCF1004F08BF20F00100B2F57C0F38BF8E
:1055200070470BD582F0FF0212F5803FC8BF70476D
:1055300000F1C040D8BF00F00040704700F5000CFB
:105540005FEA4C0C48BF7047B0F1C04000F073B840
:1055500090EA010F0CEAD11348BF42F48072624511
:1055600038BF634504D280EA010000F00040704774
:1055700010B500F01AF800BF8900013E00F007B82E
:1055800000F009B85FEA410C5FEA1C6C08D080EAC1
:10559000010000F050B85FEA400C5FEA1C6CF6D1E5
:1055A0004FF00040A0F5800070470EF1020E2EF083
:1055B000030E5EF8044B244204D44FEA4102B2F1D8
:1055C0007F4F11D84FEA4003B3F17F4F0CD80ED173
:1055D0004FEAD07CB2F17F4F0CEB4C0C0CF1020C7B
:1055E00008BF4CEBD17C04E04FF0080C01E04FEA1F
:1055F000D17C0CEB4C0324FA03F404F00704B4F15F
:10560000040C06D20EEB840CBDE810404CF0010CEB
:105610006047DFE80CF0070802024FF00040A0F5F9
:10562000800010BD0846420018BFD2F1807288BFCA
:1056300000F0004010BDFF2141EAD050C005704786
:1056400051EA000C00F113801CF5000F58BFBCF5A7
:10565000000F01D48142704707D711F5000F58BFE2
:1056600010F5000F15D481427047894270471CF530
:10567000000F04D5BCF5000FF7D5884270474FF0F6
:10568000807C1CEB410F38BF1CEB400F01D28842DD
:10569000704780EA010081EA000180EA0100FFF71B
:1056A000F8BE80F0004090EA010F7FF554AD81F024
:1056B000004100F008B8000090EA010F48BF81F0F7
:1056C00000413FF548AD421A04D882F00042A0EBF9
:1056D000020011444FEAD0524FF07F4C1CEA410FB8
:1056E000A2EBD15318BF9CEA026F4AD04FF0004C96
:1056F0004CEA00204CEA012121FA03FCB0EB0C0C2F
:105700000FD412F0FE0F36D05FEA4C001DD5001208
:1057100040EBC25038BF70471CF03F0F18BF7047B6
:105720000BE0A2F101025FEA1C2040EBC25038BF3F
:1057300070471CF07F0F18BF7047C3F120039940DA
:1057400014BF401E20F00100704780084FEA12236A
:1057500008BF7047B0FA80FCA2EB0C02CCF1280C19
:1057600060FA0CF093EA122F04BF00EBC2507047AE
:105770004FEAC3707047130A5FEADC1008BF704736
:10578000F6E79CEA026F04D010EA5C0F08BF002025
:10579000704710B5FFF709FF40DFF63E81F000408B
:1057A000704700C1814001C0804101C0804100C1FB
:1057B000814001C0804100C1814000C1814001C0E1
:1057C000804101C0804100C1814000C1814001C0D1
:1057D000804100C1814001C0804101C0804100C1C1
:1057E000814001C0804100C1814000C1814001C0B1
:1057F000804100C1814001C0804101C0804100C1A1
:10580000814000C1814001C0804101C0804100C190
:10581000814001C0804100C1814000C1814001C080
:10582000804101C0804100C1814000C1814001C070
:10583000804100C1814001C0804101C0804100C160
:10584000814000C1814001C0804101C0804100C150
:10585000814001C0804100C1814000C1814001C040
:10586000804100C1814001C0804101C0804100C130
:10587000814001C0804100C1814000C1814001C020
:10588000804101C0804100C1814000C1814001C010
:10589000804100C1814001C0804101C0804100C100
:1058A000814000C0C101C30302C2C60607C705C5C7
:1058B000C404CC0C0DCD0FCFCE0E0ACACB0BC90938
:1058C00008C8D81819D91BDBDA1A1EDEDF1FDD1D48
:1058D0001CDC14D4D515D71716D6D21213D311D178
:1058E000D010F03031F133F3F23236F6F737F535C8
:1058F00034F43CFCFD3DFF3F3EFEFA3A3BFB39F9F8
:10590000F83828E8E929EB2B2AEAEE2E2FEF2DEDC7
:10591000EC2CE42425E527E7E62622E2E323E12137
:1059200020E0A06061A163A3A26266A6A767A56547
:1059300064A46CACAD6DAF6F6EAEAA6A6BAB69A9B7
:10594000A86878B8B979BB7B7ABABE7E7FBF7DBDC7
:10595000BC7CB47475B577B7B67672B2B373B171F7
:1059600070B05090915193535292965657975595C7
:1059700094549C5C5D9D5F9F9E5E5A9A9B5B995977
:105980005898884849894B8B8A4A4E8E8F4F8D4D47
:105990004C8C4484854587474686824243834181B7
:1059A00080400000C45900080000002034010000BD
:1059B0006C010008905A0008340100209C26000069
:1059C000C8010008412D010203040450090607081C
:1059D0000902040608021C016AFF02A2FF7A0132D2
:1059E0001A0C0B3DEA01920912101BF909BC9D4DDE
:1059F000D5F589FDDDED75F03DF4E46D3570D5E943
:105A000004FF24E019881B9F90CBD9D45D5F98DFF9
:105A1000DDDE570FD34F4ED653075D9E40FF420E3B
:105A20009135992511D2026A0D051A140517141122
:105A30001511110D221532071C11130C90180C11A1
:105A4000010D0103110D0D1301011D8824111A11FF
:105A50000D01181A1A0C0503010314041311030491
:105A600003011107030B101503030C0D40201080D8
:105A700004111580204010201704080C10141C205D
:105A80001854584C5044483C40302C38242834009A
:0400000508000131BD
:00000001FF
