:020000040800F2
:10000000C02800202902000831020008330200083D
:10001000350200083702000839020008000000001D
:100020000000000000000000000000003B0200088B
:100030003D020008000000003F02000841020008E5
:1000400009520008553B0008B9490008BF3E0008A6
:10005000311F0008113E0008491E00084D1E00080F
:100060004F1E0008511E0008531E0008651B0008A3
:10007000A91B0008AB1B0008AD1B0008AF1B000844
:10008000B11B0008B31B000889160008F7510008CF
:10009000F95100084302000843020008551E0008F9
:1000A000BB490008C1490008BF490008BD49000814
:1000B000C54900086B4A00086D4A0008D3220008B1
:1000C000D1220008D7220008D5220008B940000834
:1000D000BB400008314E0008994F00089B4F0008B4
:1000E0004B1E0008BD3E0008F5510008F74A000805
:1000F000FD4A0008FB4A0008F94A0008E117000819
:1001000017210008C13E00086F4A0008BD400008E2
:10011000554C00082D4E0008714A0008F54A0008A9
:10012000B51B0008B71B0008B91B0008BB1B000863
:1001300000F002F800F068F80AA090E8000C824491
:100140008344AAF10107DA4501D100F05DF8AFF26E
:10015000090EBAE80F0013F0010F18BFFB1A43F0A5
:100160000103184724690000446900000A444FF065
:10017000000C10F8013B13F0070408BF10F8014B06
:100180001D1108BF10F8015B641E05D010F8016B4B
:10019000641E01F8016BF9D113F0080F1EBF10F8AF
:1001A000014BAD1C0C1B09D16D1E58BF01F801CBD2
:1001B000FAD505E014F8016B01F8016B6D1EF9D555
:1001C0009142D6D37047000000230024002500266A
:1001D000103A28BF78C1FBD8520728BF30C148BFAA
:1001E0000B6070471FB500F0C5FB04000020002124
:1001F00005F0AAFD401C60600020002105F08EFD86
:10020000E0601FBD10B510BD00F0C0F81146FFF74B
:10021000E9FF05F01DFD00F063FB03B4FFF7F2FFFB
:1002200003BC00F047FE000009488047094800472A
:10023000FEE7FEE7FEE7FEE7FEE7FEE7FEE7FEE796
:10024000FEE7FEE704480549054A064B70470000F3
:100250005949000831010008C0220020C0280020B0
:10026000C0240020C024002070477047704710B59C
:1002700000F05AF8006810BD10B5044600F054F8BC
:10028000046010BD0FB4002300B589B00CA9009123
:100290000B99CB60214B7B440693214B7B44079306
:1002A00004236FF00042CDE901321E4A7A446B46C6
:1002B00008920246002006F07DFA09B05DF814FBB2
:1002C00070B506464FF0FF3015460C46324686B0F4
:1002D0000091CDE9010169460020049004A8FFF7D0
:1002E000D1FF02460498211825B108B1084600E064
:1002F00020462860049800280DD0002A02DD0098CE
:10030000884208D03246081B69460094CDE90104B2
:1003100004A8FFF7B7FF06B070BD0000A9000000F9
:10032000C100000081000000004870475C220020EE
:1003300010B5044600F050F80068005D00F00100C0
:1003400010BD426842B1016811F8013B23B1521E51
:10035000C0E90012184670470121C160881E70472D
:1003600042685AB1C368016843B983688B4205D0BB
:10037000491E521CC0E90012002070474FF0FF30A8
:1003800070470000004870475C2200207546FFF768
:10039000F9FFAE4605006946534620F00700854642
:1003A00018B020B5FFF74EFFBDE820404FF0000623
:1003B0004FF000074FF000084FF0000B21F007014D
:1003C000AC46ACE8C009ACE8C009ACE8C009ACE890
:1003D000C0098D467047000010B500F0CBFA001D33
:1003E00010BD00BF655900002DE9FF4F06468BB0D8
:1003F0000878FF2806D0491C2D2805D000244FF08E
:10040000000908E000200CE00124F8E709EB89036B
:10041000491C00EB43090878FF28F7D114B1C9F152
:1004200000008146107800252C46AA4629462D2832
:1004300001D02B2804D1521C2D2813D00020824635
:100440008B461078FF280FD04FF0000C0A21521C69
:10045000A5FB017804FB018105FB0C11C5194BEBD1
:100460000104EEE70120EAE7002108464FF0000012
:10047000BAF1000F02D000EB80004008C0F38157B2
:10048000012F01DD4FF0FF370E9955EA040009EB0B
:1004900001080BD04FF0020918F5FA7F16DA4FEA7F
:1004A000CA70002F706008DD012007E04FEACA70B3
:1004B000C6E900B00FB0BDE8F08F00203060FFF754
:1004C00033FFC0F800901821084616E0B8F5FA7F0F
:1004D00018DD002F02DAF748784401E0F648784446
:1004E000D0E90010C6E9001040EACA707060FFF75A
:1004F0001BFFC0F80090142108460FB0BDE8F04F74
:1005000006F0F5B8002108464FF00000B8F10001F0
:10051000099002DAC7F1000200E03A4601DAC8F1B8
:10052000000106A800F02AFA06AB93E8070003AB27
:1005300083E8070044F23E005BEA0401009058465D
:1005400004D144F21E012C465D460091210C0904A1
:10055000014306D10099240444EA15442D041039BE
:10056000009104F07F41014306D10099240244EA3E
:1005700015642D020839009104F07041014306D141
:100580000099240144EA15742D01091F009104F01B
:100590004041014306D10099A40044EA9574AD009E
:1005A000891E009104F00041084304D100986D19A0
:1005B0006441401E00904FF001033A466846B8F18E
:1005C000000FCDE9014503A902DD00F026FF01E09F
:1005D00000F0F9FEBAF1000F04460D4601D084F098
:1005E0000044002108464FF00000099940F2FF77CF
:1005F000484010F00C0F07D124F00040284303D0EE
:10060000C4F30A50B84212D1FFF78EFEC0F8009032
:10061000C4F30A50B8420AD1A8487844D0E900107F
:10062000C6E9001004F000410843706042E7C6E9E3
:1006300000543FE72DE9FF4F1F464FF0000A4FF0EF
:10064000FF38454691B0D7E90146CDF83CA000F00F
:1006500091F9C0680168405C1090B96912986D1CEE
:100660008847396A814688470028F6D1B9F1FF3FAB
:100670000AD0002E24F4D06411DDB9F12B0F08D07C
:10068000B9F12D0F0BD102E0404615B013E744F449
:100690008064B96912986D1C8847761E8146600592
:1006A00004A901D52D2000E02B20002E01F1010B23
:1006B0000DF130088DF810003FDDB9F1690F08D059
:1006C000B9F1490F05D0B9F16E0F02D0B9F14E0F53
:1006D0001CD13B4601A8009580E85002DDE91212CA
:1006E0006FF0020006F06AF8C11CCED10EE0B969C5
:1006F00012986D1C884781461398761E44F4007446
:1007000005600F98401C002E0F9016DDB9F1300FD8
:10071000EDD0B9F1780F02D0B9F1580F0DD10F9883
:1007200001280AD13B46CDE90054DDE91212001F31
:10073000029606F041F8C11CA7D1109989453ED117
:1007400044F0800406E01399681CAAF1010A44F4FD
:1007500000740860B9696D1C1298761E88473028AD
:100760008146F0D02BE01099894505D1200603D4AD
:10077000761E44F0800418E0484604F0E9FD08B312
:10078000761E0DF123018B4544F4007408D2A9F1C3
:1007900030000BF8010B200607D5AAF1010003E099
:1007A000200602D40AF101008246A00502D5139961
:1007B000681C0860B96912986D1C88478146002E34
:1007C000D1DC53E0002E51DDB9F1650F02D0B9F153
:1007D000450F4BD1A00549D5B9696D1C1298761EFD
:1007E00024F440748847002E81460CDD2B2804D069
:1007F000B9F12D0F07D144F48074B96912986D1CBA
:100800008847761E8146E00501D52D2100E02B2189
:1008100008F8011BCDF8008021E0761E0DF13901AA
:10082000884544F400740CD2A9F1300010F0FF00A8
:1008300088F8000002D10099884509D908F101081B
:1008400006E0E00501D51E4801E042F20F70824645
:10085000B96912986D1C8847814613980560002E6F
:1008600004DD484604F074FD0028D6D1F9691298D9
:100870008847FF2053468BF8000088F800000020CE
:100880000A900B9004AA0CA90AA8FFF7ADFDA005D9
:1008900002D46FF00100F8E614F0240F12D0E00744
:1008A0001CD13868DDE90A12031D3B600068C0E90D
:1008B000001213E0D4650000C66500008A640000E1
:1008C000F1D8FFFF0AA9684604F0CCFCE00705D187
:1008D0003868009A011D3960006802602846D4E635
:1008E00010B50446AFF300802046BDE81040FFF786
:1008F00094BC00004FF0013C50F8042B51F8043B2D
:100900009A4221D1A2EB0C03934313EACC1317D1E3
:1009100050F8042B51F8043B9A4215D1A2EB0C037A
:10092000934313EACC130BD150F8042B51F8043B3A
:100930009A4209D1A2EB0C03934313EACC13DBD008
:100940004FF00000704700BFD01A01BAB1FA81F130
:1009500001F0180122FA01F0CB40C1F12001DBB215
:10096000C0B2C01A2CFA01F3D11A914311EAC31193
:10097000E6D17047004870477C2200202DE9F047FF
:10098000814616468AB0354878440DC88DE80D007A
:1009900032487844801C03AC0DC884E80D0041F651
:1009A0009B300844372190FBF1F290FBF1F5A5F163
:1009B000800501FB12041B3C02D56442012000E0CB
:1009C0000020DFF898A080460027FA44AAF1BE0A6A
:1009D0000EE0E0070AD03246684607EB47010123E4
:1009E0000AEB810100F004FD8DE8070064107F1C14
:1009F000002CEED1194F7F44AE3F19E0E80715D027
:100A000007EB04100DF1180A90E80E008AE80E00BA
:100A1000C068F04201D1981908903246012306A916
:100A200003A800F0E5FC03AB83E807006D10641C2D
:100A3000002DE3D14FF0010332466946B8F1000FB3
:100A400003A802D000F0AAFC01E000F0D1FCC9E943
:100A50000001C9F808200AB0BDE8F087E460000092
:100A60002DE9FF4F1F464FF03C0987B04FF0004281
:100A7000DDE9141001F10108DDF858A002EA405048
:100A80000390002005908346054604460490B9690A
:100A9000461E08988847AAF1010A0290BAF1000F91
:100AA0003BDD02982E2815D0102100F01CFA0028FA
:100AB0002EDB4FF0010B0599014317D0B9F1000F60
:100AC0000BDB4A46C11700F0FBF905430C43A9F1C3
:100AD000040905E0012004900BE008B145F0010590
:100AE00001200590049820B9361D02E0049800B159
:100AF000361FB969089808F101088847BBF1000F53
:100B0000AAF1010A0290C9D00999C1F80080C5E78D
:100B10000298702808D0502806D0F96908988847AC
:100B2000BBF1000F14D04FE0002002900120BBF178
:100B3000000F049009D0B969089808F101088847A6
:100B4000AAF10109B9F1000F07DCF9690898884793
:100B50006FF001000BB0BDE8F08F2B2804D02D28DA
:100B60000CD14FF0FF300490B969089808F10108E2
:100B70008847A9F10109B9F1000FE6DD411CE4D075
:100B80000A2100F0B0F90028DFDB029908F1010822
:100B900001EB810100EB41000290B9690898884798
:100BA0000A2100F0A0F9099AA9F10109B9F1000F91
:100BB000C2F8008001DD0028E7DAF9690898884763
:100BC0000499029800FB016655EA040004D004F081
:100BD0004041090002D006E0039898E0A40044EAEE
:100BE0009574AD00B61E04F00041080002D16D19E5
:100BF0006441761E159810F0240F03D04FF00B09B6
:100C00005C4803E04FF028096FF07D0082465645AE
:100C100007DAAAEB06018944B9F1410F01DD4FF073
:100C2000410901200021A9F1010200F049F9024621
:100C300028400B462140084301D0012100E000215B
:100C4000501E029143F1FF3128402140084301D05A
:100C5000012000E000200299834651EA0B014FD0A9
:100C6000002108464FF00000039900F4400039B11C
:100C700000EB80004FF4400100EBD07001EA60000F
:100C80008015012802DD4FF0FF3000E013D0401C3A
:100C900036D0029860B3BBF1000F0CD14A46012058
:100CA000002100F00DF928402140084301D0012027
:100CB00000E00020E0B101204A46002100F000F9E8
:100CC000034640190A4661412D1A8C4111D3B9F1EE
:100CD000400F09DD159810F0240F02D0AAF1340658
:100CE00003E0AAF1170600E0761C00254FF000444F
:100CF00006E05B1E42F1FF3220EA030521EA02040E
:100D0000CAF10100B04206DA1B490398084301907A
:100D1000002000900EE0039AC4F3D321E80A0A43AE
:100D2000164940EA44500A433146CDE9000268467C
:100D300004F003FB159810F0240F0BD01598C00792
:100D400015D13868DDE90012031D3B600068C0E979
:100D500000120CE002A8694604F084FA1598C00756
:100D600005D13868029A011D39600068026040466A
:100D7000F0E6000002FCFFFF0000F07F0000F03F03
:100D80002DE9FF4F92461D4685B04FF00041DDE949
:100D9000124BDDE914727F1E01EA4B50414940F0CD
:100DA000FF4940EA0108002122F02000492804916F
:100DB00002D04E2828D04CE03BA0012607C88DE881
:100DC0000700A9690698641C88477F1E014606D45F
:100DD0001DF8060018B121F0200181420BD0E9690D
:100DE00006988847032E34D0082E32D06FF00100C9
:100DF00009B0BDE8F08F761C032E01D0082EE0D19B
:100E0000601CCAF80000DCE7A9690698641C8847E2
:100E10007F1E2AD420F02000412826D1A9690698F7
:100E2000641C88477F1E20D420F020004E281CD14F
:100E3000A9690698641C88477F1E48F4002849F475
:100E40008009CAF8004001D4282806D0E96906982C
:100E500088475FEACB7012D022E0A9690698641C2B
:100E600088477F1E01D4002803DAE969069888477D
:100E7000BCE72928F1D1641CCAF80040E9E71BF05F
:100E8000240F07D028680499031D2B600068C0E96F
:100E9000001805E02868021D2A600068C0F800906C
:100EA0002046A5E70000F07F494E46494E49545977
:100EB0000000000001491820ABBEFEE7260002003A
:100EC000B2F120030AD5C2F1200301FA02F120FA9F
:100ED00003F300FA02F041EA0301704700FA03F15C
:100EE0004FF0000070473A2800D2303820F020023E
:100EF000412A01D3A2F13700884201D34FF0FF30DD
:100F00007047704720F07F4C80EA030023F07F4752
:100F1000ACEB070303F57C5300F0004003F1FF0343
:100F20002DE980494FEA154B09B44FEA144325EAED
:100F30000B4E24EA03480FF2042606EB1327490858
:100F40003E785FEA320203FB0667C7F5000707FB3E
:100F500006F64FEA54374FEAD64606F1020607FB7B
:100F6000066CCCF1005C4FEA1C472CEA074C07FBEF
:100F700006F40CFB06F504EB15464FEA961634BF53
:100F800000204FF000404FEAD13706FB07FC4FEA44
:100F90001C4C0CFB0BF7D21B03FB0CF761EB07019E
:100FA0000CFB0EF7B0EB074072EB17420CFB08F797
:100FB00034BFA2EB0742B2EB074261EB17414FEAA5
:100FC0000C444FEA910706FB07FC4FEA1C4C0CFB54
:100FD0000BF7B0EBC74072EB573203FB0CF734BF93
:100FE000A2EBC742B2EBC74261EB57310CFB0EF7E5
:100FF000B0EBC70072EB57720CFB08F734BFA2EBE3
:10100000C702B2EBC70261EB5771039F4FEA8161E0
:1010100041EA921104EBCC044FEAD1374FEA8262E5
:1010200006FB07FC42EA90124FEA80604FEA1C4C34
:101030000CFB0BF7D21B03FB0CF761EB07010CFB5E
:101040000EF7B0EB074072EB17420CFB08F734BF0A
:10105000A2EB0742B2EB074261EB17414FEA8C5516
:101060004FEA910704EB9C2406FB07FC4FEA1C4C5B
:101070000CFB0BF7B0EBC74072EB573203FB0CF7DE
:1010800034BFA2EBC742B2EBC74261EB57310CFB56
:101090000EF7B0EBC70072EB57720CFB08F734BFCA
:1010A000A2EBC702B2EBC70261EB577115EB4C25FF
:1010B0004FEA816141EA92114FEA82624FEAD137E9
:1010C00042EA901206FB07FC44F100044FEA8060FC
:1010D0004FEA1C4C0CFB0BF7D21B03FB0CF761EB2C
:1010E00007010CFB0EF7B0EB074072EB17420CFB4D
:1010F00008F734BFA2EB0742B2EB074261EB17419E
:1011000015EB1C154FEA813141EA92414FEA8232D8
:1011100042EA90424FEA80304FEA0C7644F10004F4
:1011200048EA03434EEA0B484FF0000EB2EB080CBE
:1011300071EB030724BF624639464EEB0E0E4FF0AB
:10114000000B0018524149414BEB0B0BB2EB080C62
:1011500071EB03077BF1000B24BF624639464EEB6F
:101160000E0E4FF0000B0018524149414BEB0B0B98
:10117000B2EB080C71EB03077BF1000B24BF624656
:1011800039464EEB0E0E51EA020718BF46F0010633
:1011900016EB0E7655F1000254F1000103D5BDE8BF
:1011A0008901BDE80088BDE88901BDE80048B6199D
:1011B000524141EB0101A3F10103704780807F7E22
:1011C0007D7C7B7A797877767675747372717170BD
:1011D0006F6E6E6D6C6C6B6A6A696868676666656F
:1011E0006464636362616160605F5F5E5E5D5D5CFD
:1011F0005C5B5B5A5A59595858575756565555556E
:101200005454535352525251515050504F4F4F4ECD
:101210004E4D4D4D4C4C4C4B4B4B4A4A4A4949491B
:10122000484848474747474646464545454444445D
:1012300044434343434242424241414146EA064617
:10124000A3F570534FEA164646EA42564FEAD222B9
:1012500042EA415210B54FEAD121A3F1010300F057
:101260002FF820F0004000F1020C00F0004701EBE5
:1012700000501146BCF5006F40EA070000D210BDD7
:10128000BAF1000F0AD01CB503B44FF004004FF0C0
:1012900004014FF000000FBCBDE810404FF000010A
:1012A000BBF1010FB9BF04484FF0FF3103480021E3
:1012B00040EA070010BD00BFFFFFEF7F0000F07F96
:1012C000002B9C4630D477002BD01CB54FEA370753
:1012D00003B44FF010004FF01001BAF1000F06D028
:1012E000BCF1000FDCBF40F0080040F008014FF0F7
:1012F00000000FBCBDE810400BF1010BBBF1010F6A
:1013000008BF5FEA170722BF12F1010211F10101C4
:101310004FF0004143F1000300F0004043EA0000B9
:101320007047F9D35708D0E746EA064613F1400F55
:101330004FEA16461FDD13F1200FDFBF16430A46A2
:10134000002120335B42BED0C3F1200746EA0646A7
:1013500002FA07F74FEA164646EA0706C3F12007E6
:1013600022FA03F201FA07F721FA03F14FF0000322
:1013700042EA0702A7E746EA020646EA06464FEABD
:10138000164646EA0106BCBF46EA0646360C4FF052
:1013900000034FF000024FF0000194E72DE9804C6C
:1013A0009A46934670B491E8380007C831EA400C79
:1013B00048BF34EA430C03D5FFF7A4FDFFF780FFD5
:1013C000F0BCBDE8008C2DE9804C9A46934670B481
:1013D00091E8380007C831EA400C48BF34EA430CB2
:1013E00003D5FFF78FFDFFF729FFF0BCBDE8008CA8
:1013F0002DE9804C9A46934670B491E8380007C8AE
:1014000010F0804F08BF13F0804F03D100F01AF89E
:10141000FFF756FFF0BCBDE8008C2DE9804C9A46E2
:10142000934670B491E8380007C810F0804F08BFA9
:1014300013F0804F03D100F005F8FFF7FFFEF0BC7A
:10144000BDE8008C20F07F4780EA030023F07F4C4A
:1014500007EB0C03A3F57C5300F00040A3F1FE035F
:1014600092F0000F00F0B38095F0000F00F077804D
:101470002DE901494FEA11404FEA144621EA00489C
:1014800000FB06FC24EA064708FB06F607FB08F803
:1014900000FB07F718EB06484CEB164C4FEA124BD3
:1014A00018EB07484FEA15464CEB174022EA0B4E63
:1014B0000BFB06FC25EA06470EFB06F607FB0EFEB5
:1014C0000BFB07F71EEB064E4CEB164C4FF00006DD
:1014D0001EEB074E4CEB174B18EB0B0840F10000CE
:1014E00018EB0E0B58EB000840F100008F1A4FF07C
:1014F00000013CBFC943661B14BFB5EB040C0021BF
:101500003CBFC943F61B4FEA17444EEA8E0E27EA4A
:1015100004454FEA1C4704FB07622CEA074C05FB15
:1015200007F70CFB05F604FB0CFC16EB074642EB39
:10153000174216EB0C4642EB1C421BEB060658EB1F
:101540000202414146EA9E0601D5BDE80189B6196D
:10155000524141EB0101A3F10103BDE801894FEACA
:1015600014454FEA114724EA054621EA074C05FBDA
:1015700007F406FB07F70CFB06F105FB0CFC11EB6F
:10158000074144EB17444FEA124711EB0C4144EB7F
:101590001C4422EA074C05FB07F206FB07F70CFB8D
:1015A00006F605FB0CFC16EB074642EB174216EB62
:1015B0000C4642EB1C456A1854F1000148BF7047C5
:1015C000B619524141EB0101A3F10103704795F0B7
:1015D000000F37D04FEA11424FEA144721EA024682
:1015E00024EA074C02FB07F106FB07F70CFB06F4A5
:1015F00002FB0CFC14EB074441EB17414FEA154783
:1016000014EB0C4441EB1C4125EA074C02FB07F5A7
:1016100006FB07F70CFB06F602FB0CFC16EB074675
:1016200045EB174516EB0C4645EB1C42121951F1E0
:10163000000148BF7047B619524141EB0101A3F1C7
:10164000010370474FEA14454FEA114724EA054663
:1016500021EA074C05FB07F106FB07F70CFB06F236
:101660004FF0000605FB0CFC12EB074241EB174163
:1016700012EB0C4251EB1C4148BF7047921841EBF2
:101680000101A3F1010370477047000000B591B05C
:101690000121084602F06CFA0121480202F088FAA2
:1016A0000720ADF8000000208DF803006946474888
:1016B00000F07FFD0820ADF8000000208DF8030049
:1016C0006946434800F075FD424800F091FA4248EF
:1016D000019042480290002003904FF48050049003
:1016E0000020059080200690400007908000089020
:1016F0002020099000020A9000200B9001A9354893
:1017000000F03BFB0121334800F066FA012000F0B5
:1017100059F94FF4404002F01FFA00200C900120CC
:101720008DF834008DF835004FF460200E900020C5
:101730000F9004208DF840000CA927484C3800F089
:101740007BF8072301220A2123484C3800F0ADF82A
:1017500007230222032120484C3800F0A6F8072373
:10176000032211211C484C3800F09FF80723042263
:10177000102119484C3800F098F8012116484C38CF
:1017800000F03AF8012114484C3800F02AF81248C9
:101790004C3800F0E6F800BF0F484C3800F041F834
:1017A0000028F9D10C484C3800F007F900BF0A486E
:1017B0004C3800F02CF80028F9D1002106484C38AC
:1017C00000F00FF800F060F811B000BD001001400B
:1017D00000080140080002404C240140380200206B
:1017E000704721B1826842F00102826003E08268A2
:1017F00022F001028260704721B1826842F4807257
:10180000826003E0826822F4807282607047014641
:1018100000208A6802F004020AB1012000E00020E2
:101820007047014600208A6802F008020AB10120D0
:1018300000E000207047000030B502460020002381
:1018400050680F4C20400D790C6844EA0524204371
:10185000506090680B4C2040D1E902542C434D79E4
:1018600044EA450420439060D06A20F470000C7C68
:10187000641EE4B2234340EA0350D06230BD00004E
:10188000FFFEF0FFFDF7F1FF08B50B208DF800001B
:101890000A208DF8010000208DF8020001208DF84B
:1018A0000300684602F00AF908BDF0B504460D468B
:1018B00000200021092D11DDE068A5F10A0606EBE4
:1018C0004607072606FA07F18843A5F10A0606EB44
:1018D000460603FA06F10843E0600CE0206905EBD8
:1018E0004507072606FA07F1884305EB450603FA84
:1018F00006F108432061072A0FDA606B561E06EBDB
:1019000086071F2606FA07F18843561E06EB860651
:1019100005FA06F10843606322E00D2A0FDA206B16
:10192000D61F06EB86071F2606FA07F18843D61F47
:1019300006EB860605FA06F10843206310E0E06A2C
:10194000A2F10D0606EB86071F2606FA07F188436B
:10195000A2F10D0606EB860605FA06F10843E062E1
:10196000F0BD816841F008018160704710B5012128
:101970000A48FFF736FF01220621094800F0F4F972
:101980000121074800F028F90121044800F00AF875
:101990004FF4FA6000F04DFA10BD00000024014041
:1019A0000800024021B1826842F4A002826003E094
:1019B000826822F4A00282607047816841F00401CD
:1019C0008160704730B10749096841F40001054A58
:1019D000116005E00349096821F40001014A116022
:1019E00070470000082401402DE9F04100242A48F6
:1019F000007800284EDC29480078012807D12849C2
:101A00000D8805EBD571481000F0A4F842E0254898
:101A1000008804F0A7FC054623480168284604F026
:101A2000B5FD04D81E48008800F094F832E01F4845
:101A3000008804F097FC05461B480168284604F01E
:101A4000A5FC04D81A48008800F084F822E0144865
:101A5000008804F087FC80461548008810490988F2
:101A6000401A1249098890FBF1F7384604F062FCED
:101A700006460D480168304604F0BCFC0546414668
:101A800004F0ECFA0446204604F034FC85B2284603
:101A900000F060F8BDE8F0816C00002048000020F4
:101AA0006E0000204C000020440000204A0000206E
:101AB0007000002010B502F08BF801F0A9FE01F0D3
:101AC000F1FF10BD39B1084A1268012383401A435F
:101AD000054B1A6006E0044A1268012383409A43CA
:101AE000014B1A60704700000074004030B50022BE
:101AF00000230A4C226840F6FE748440A243D1E9D8
:101B000000452C438D682C43CD6844EA050303FA55
:101B100000F42243014C226030BD000000740040FC
:101B200008B500220092054A009200F10802009BCD
:101B30001A440092009A116008BD00000074004031
:101B40000021016041608160C160704710B500F004
:101B500033F910BD10B5044621460020FFF7E0FF21
:101B600010BD000010B5022000F0E8F8012809D1EE
:101B7000022000F023F801200949087000200949DB
:101B800008700CE0042000F0D9F8012807D10420E7
:101B900000F014F80120024908700249087010BDD5
:101BA0002C0000202D0000207047704770477047C0
:101BB00070477047704770477047704700F080511A
:101BC00011B10349086001E0024948607047000014
:101BD000040402400000024021B1026842F0010208
:101BE000026004E002684FF6FE731A40026070471C
:101BF00001684FF6FE7211400160002101604160F2
:101C00008160C1604B49884208D14A490839496816
:101C100041F00F01474A083A51608AE045491431C2
:101C2000884208D143490839496841F0F001414AE6
:101C3000083A51607DE03F492831884208D13D494A
:101C40000839496841F470613A4A083A516070E0D5
:101C500038493C31884208D136490839496841F44D
:101C60007041344A083A516063E032495031884249
:101C700008D130490839496841F470212D4A083AA1
:101C8000516056E02B496431884208D1294908390E
:101C9000496841F47001274A083A516049E02549F2
:101CA0007831884208D123490839496841F0706188
:101CB000204A083A51603CE01F49884206D1011F82
:101CC000096841F00F01021F116032E01A49143116
:101CD000884208D11849091F096841F0F001164AE5
:101CE000121F116025E014492831884208D1124999
:101CF000091F096841F470610F4A121F116018E052
:101D00000D493C31884208D10B49091F096841F44B
:101D10007041094A121F11600BE007495031884297
:101D200007D10549091F096841F47021024A121FB1
:101D3000116070470800024008040240014600207C
:101D4000002201F0805313B1054B1A6801E0054BE6
:101D50001A6802EA01030BB1012000E0002070477D
:101D600000040240000002401AB103680B43036004
:101D700002E003688B430360704710B500220268DD
:101D800047F6F0739A430C6A8B6823430C6923432C
:101D90004C6923438C692343CC6923434C6A234316
:101DA0008C6A23431A430260CB6843600B688360EC
:101DB0004B68C36010BD000000B585B06846FFF7F2
:101DC000BFFE0121480701F0E3FE1020ADF810002E
:101DD00000208DF8130003208DF8120004A90C4890
:101DE00000F0E7F910210A4800F070FA0020009096
:101DF000019003906946FFF779FE01210020FFF76B
:101E000061FE044801880020FFF78AFE05B000BD8E
:101E1000000801406E000020002100E0491C8142C2
:101E2000FCDB7047002000E0401CB0F5FA5FFBD3FC
:101E3000704700B50246002303E0FFF7F3FF581C8C
:101E400083B29342F9DB00BD70477047704770471B
:101E5000704770477047000000200B4908704FF42E
:101E6000F5700A49088040F6C4100949088001202D
:101E7000084908700849087019200849088032206C
:101E800007490880704700003F0000206E000020D6
:101E9000700000207200002073000020500000201D
:101EA0004E0000200149C860704700000020024039
:101EB00030B5044604254FF4302000F019F90546EA
:101EC000042D17D10C48006940F002000A4908614E
:101ED00008464461006940F0400008614FF430203A
:101EE00000F006F905460448006941F6FD71084016
:101EF00001490861284630BD0020024004200B49FA
:101F0000C96801F0010109B101200EE00749C96863
:101F100001F0040109B1022007E00449C96801F099
:101F2000100109B1032000E00420704700200240A6
:101F3000704700000348006940F0800001490861D3
:101F400070470000002002400E4800780E490870DB
:101F50000C4880880D4908800A4800890C4908808F
:101F60000848007B0B4908700648007C0A49087045
:101F70000448808A094908800248008B0849088083
:101F8000704700001C0200203F0000206E0000206F
:101F9000700000207200002073000020500000201C
:101FA0004E0000200B4800780B4908600B48008861
:101FB00048600B48008888600A480078C8600A4872
:101FC00000780861094800884861094800888861EC
:101FD000704700003F0000201C0200206E0000201F
:101FE00070000020720000207300002050000020CC
:101FF0004E0000200549096821F01001034A1160D4
:10200000114609680143116070470000002002403A
:1020100078B506460C46042500200090E80200F042
:1020200067F80546042D24D11348006940F00100EB
:10203000114908613480E80200F05AF80546042D81
:1020400010D1B01C0090200C00990880E80200F02C
:102050004FF805460848006941F6FE7108400649F8
:10206000086106E00448006941F6FE710840024933
:102070000861284678BD00000020024010B5044CDD
:102080002146044800F048F8FFF75EFF10BD00004D
:102090001C02002000F8030801460020034A1068D3
:1020A00000F0380008431060704700000020024034
:1020B0000248034948600348486070472301674568
:1020C00000200240AB89EFCD10B5074CFFF76AFF47
:1020D000012003F02DF92146044800F03CF80020CF
:1020E00003F026F910BD00001C02002000F80308D0
:1020F00000B502460423FFF701FF034603E0FFF7A4
:10210000FDFE0346521E012B01D1002AF7D102B970
:102110000523184600BD7047F8B506460C46002555
:1021200012E006EB850000F013F800900098401CC8
:1021300020B9FFF791FEFFF7C7FFF8BD6F4638687B
:102140002060241D681CC5B2072DEADB00BFF4E740
:102150000146086870472DE9F04107460C46FFF735
:10216000A7FF3520FFF79EFE3846FFF7A1FE064683
:1021700004E04FF47A70FFF7BBFF0646042EF8D157
:10218000002510E038462168FFF742FF064604E0CC
:102190004FF47A70FFF7ACFF0646042EF8D13F1DCE
:1021A000241D681CC5B2072DECDBFFF7C3FEBDE89C
:1021B000F0812DE9F0410246002500260020002391
:1021C0000024002791F803C00CF00F0591F803C01C
:1021D0000CF0100CBCF1000F03D091F802C04CEAD7
:1021E000050591F800C0BCF1000F31D01468002043
:1021F0002BE04FF0010C0CFA00F3B1F800C00CEA30
:1022000003069E4220D183004FF00F0C0CFA03F717
:10221000BC4305FA03FC4CEA040491F803C0BCF18A
:10222000280F06D14FF0010C0CFA00FCC2F814C0C4
:102230000AE091F803C0BCF1480F05D14FF0010C42
:102240000CFA00FCC2F810C0401C0828D1D314605E
:10225000B1F800C0BCF1FF0F34DD546800202EE05F
:1022600000F1080C4FF0010808FA0CF3B1F800C0B7
:102270000CEA03069E4221D183004FF00F0C0CFAAA
:1022800003F7BC4305FA03FC4CEA040491F803C0CD
:10229000BCF1280F05D100F1080C08FA0CF8C2F8BF
:1022A000148091F803C0BCF1480F07D100F1080C6D
:1022B0004FF0010808FA0CF8C2F81080401C0828FA
:1022C000CED35460BDE8F081416170470161704731
:1022D000704770477047704710B500F019F809490A
:1022E0000948006804F052F905D24FF480610748AC
:1022F000FFF7ECFF04E04FF480610448FFF7E4FFD0
:1023000010BD00000000EB4430000020000C014034
:102310002DE9F04100261648007830B3154C1648D8
:10232000007808B904F58054A41D34F8020B04F0B9
:1023300019F8064601250BE0A41D34F8020B04F041
:1023400011F80746314603F089FE0646681C85B23F
:10235000B5F5007FF0DB0020054908704FF088419B
:10236000304603F0E9FE05490860BDE8F081000051
:102370002C000020380200202D000020300000201A
:1023800008B54FF480610B48FFF79EFF4FF4806063
:10239000ADF8000010208DF8030003208DF8020036
:1023A00069460448FFF705FF4FF480610148FFF7D5
:1023B0008BFF08BD000C014008B54FF480410B486D
:1023C000FFF782FF4FF400510848FFF77DFF4FF4FD
:1023D000C040ADF8000010208DF8030003208DF8F8
:1023E000020069460148FFF7E4FE08BD0010014005
:1023F0002DE9F04100240026002734480068C0F38E
:1024000080103249096801F0800140EA9114E043EC
:10241000C4B204F00304012C02D0022C04D101E068
:10242000022604E0012602E00020BDE8F08100BFA2
:1024300027461420FFF7FDFC002424480068C0F361
:1024400080102249096801F0800140EA9114E043BC
:10245000C4B204F00304BC4201D00020E5E700252B
:1024600013E0002419480068C0F380101749096878
:1024700001F0800140EA9114E043C4B204F0030487
:102480006420FFF7D6FC681CC5B20CB1142DE8DB44
:10249000142D06D1012E01D1032602E0022E00D117
:1024A00004260EE0002409480068C0F380100749A4
:1024B000096801F0800140EA9114E043C4B204F0DD
:1024C0000304002CEED13046AFE7000008080140BD
:1024D00008B5C020ADF8000048208DF8030069461B
:1024E0000148FFF766FE08BD0008014010B5FFF780
:1024F0007FFF012806D0022859D003287ED0042867
:1025000054D1E1E07448007801280FD17348007875
:1025100073490978884204DC724800786F49087072
:1025200004E06E480078401E6C4908706A480078E4
:1025300002283BD16C486D490978405C092805DBCD
:1025400000206949694A1278885409E06648674959
:102550000978405C401CC1B26348644A12788154D7
:1025600063480078012821D15F48007842F2107159
:1025700048435D49497801EB4102C2EBC11100EBD0
:10258000C1005949897801EBC10202EB011100EB4E
:1025900081005549C97801EB810100EB41005249A6
:1025A0000979084484B22046FFF7D4FA92E04A48F9
:1025B000007801280FD1494800784A4909788842B3
:1025C00004DB474800784549087004E04348007838
:1025D000401C424908704048007802280DD1434809
:1025E0000078002804DC04204049087005E005E07C
:1025F0003E480078401E3D4908706BE03648007840
:10260000F0B3012802D002285BD144E033480078BF
:10261000042813D03148007805280FD02F480078BF
:1026200006280BD02D480078082807D02B480078C2
:10263000092803D0294800780A2802D101F0CCFDEE
:1026400028E026480078072821D100202649087074
:10265000487028480078642190FBF1F02249887086
:1026600024480078642190FBF1F201FB12000A215A
:1026700090FBF1F01C49C8701E4800780A2100E068
:102680000CE090FBF1F201FB1200174908710220E7
:102690001149087016E001F09FFD13E001200E497A
:1026A00008700E49087000200F4908704870887043
:1026B000C870087104200D49087000200C4908708A
:1026C00000E000BF00BF05E0002003490870084992
:1026D000087000BF00BF10BD620000206300002032
:1026E0006A00002069000020640000206B000020C8
:1026F0006C0000203F00002010B500222B4801781C
:102700002B48007800F01AFF00222A4801782A4856
:10271000007800F013FF002228480178284800784C
:1027200000F00CFF0022274801782748007800F0CD
:1027300005FF0022254801782548007800F0FEFEBC
:102740000022244801782448007800F0F7FE002297
:10275000224801782248007800F0F0FE002221484B
:1027600001782148007800F0E9FE00221F48017836
:102770001F48007800F0E2FE00211E48007800F0BB
:10278000B7FE00211C48007800F0B2FE00211B4873
:10279000007800F0ADFE00211948007800F0A8FE96
:1027A00000211848007800F0A3FE10BD3801002079
:1027B000370100203A010020390100203C010020AF
:1027C0003B0100203E0100203D010020410100208E
:1027D000400100204301002042010020450100206B
:1027E000440100204701002046010020490100204B
:1027F000480100204D0100204A0100203F01002037
:102800004B0100204C01002010B500F085F94FF479
:102810009670FFF70EFB00F09BF8002000F0CCF85C
:1028200010BD000070B5314800780A2190FBF1F02E
:10283000C4B22E48007890FBF1F201FB1200C5B241
:10284000FFF75AFF2A48C1782A48007800F050FE66
:102850002948027D294801782948007800F06EFE59
:102860002548827D274801782748007800F066FED9
:102870002648025D264801782648007800F05EFE72
:102880002248425D244801782448007800F056FE32
:102890000022234801782348007800F04FFE2248A8
:1028A000C27B224801782248007800F047FE1E488B
:1028B000027E204801782048007800F03FFE1A4848
:1028C000027E1E4801781E48007800F037FE002284
:1028D0001C4801781C48007800F030FE4FF4FA6084
:1028E000FFF7A7FA00201949087070BD63000020A7
:1028F0002B0100204B0100207C000020380100202B
:10290000370100203A01002039010020B2000020E8
:102910003C0100203B0100203E0100203D01002041
:1029200041010020400100209700002043010020C9
:102930004201002045010020440100204701002001
:1029400046010020490100204801002062000020CB
:1029500010B51848006840F00400164908601920B6
:10296000FFF75AFA8021032000F09CF80321002091
:1029700000F04EF80721002000F04AF8372100202F
:1029800000F046F85721002000F042F81321002003
:1029900000F03EF8C021002000F03AF80548001F82
:1029A000006840F004000349091F08601920FFF780
:1029B00033FA10BD1408014070B50446134800688E
:1029C00040F00400114908601920FFF725FAA02102
:1029D000032000F067F80021062000F063F80025CE
:1029E00005E02146042000F05DF8681CC5B2202DEA
:1029F000F7DB0648001F006840F004000349091F88
:102A000008601920FFF708FA70BD000014080140A3
:102A100070B504460D46012C1FD12148006840F0D6
:102A200001001F4908601920FFF7F6F91C48001F34
:102A3000006840F002001A49091F08601920FFF7DA
:102A4000EBF91748001F006840F001001449091F06
:102A500008601920FFF7E0F91CE01148006840F019
:102A600001000F4908601920FFF7D6F90C480068EB
:102A700040F002000A4908601920FFF7CDF9084824
:102A8000001F006840F001000549091F0860192077
:102A9000FFF7C2F92946082000F004F870BD0000D5
:102AA000140C014070B505460C4600262FE019486D
:102AB000006840F00100174908601920FFF7ACF9E1
:102AC00004F0800058B11348001F006840F0020075
:102AD0001049091F08601920FFF79EF908E00D480A
:102AE000006840F002000B4908601920FFF794F9D4
:102AF0000848001F006840F001000649091F0860EF
:102B00001920FFF789F96006040E701CC6B2AE42A8
:102B1000CDDB70BD140C014008B50320ADF80000FA
:102B200010208DF8030003208DF802006946084844
:102B3000FFF73FFB0420ADF8000010208DF80300E4
:102B400003208DF8020069460248FFF732FB08BDFA
:102B5000000C01400008014010B5FFF7CDFD2448EE
:102B6000C27C244801782448007800F0E7FC204823
:102B7000827C224801782248007800F0DFFC1C4863
:102B8000C27A204801782048007800F0D7FC184825
:102B9000827B1E4801781E48007800F0CFFC1D485B
:102BA00002781D4801781D48007800F0C7FC1948DC
:102BB000C27B1B4801781B48007800F0BFFC154819
:102BC000027E194801781948007800F0B7FC1148D6
:102BD000027E174801781748007800F0AFFC0D48D6
:102BE0000278154801781548007800F0A7FC10BD60
:102BF0007C00002038010020370100203A0100202D
:102C0000390100203C0100203B0100203E01002052
:102C10003D010020970000204101002040010020DC
:102C20004301002042010020450100204401002012
:102C300047010020460100204901002048010020F2
:102C400070B5324800780A2190FBF1F0C4B22F48E9
:102C5000007890FBF1F201FB1200C5B2FFF74CFDCA
:102C60002B48C1782B48007800F042FC2A48027DAE
:102C70002A4801782A48007800F060FC2648827DC6
:102C8000284801782848007800F058FC2748025D61
:102C9000274801782748007800F050FC2348425D1F
:102CA000254801782548007800F048FC2448027C3B
:102CB000244801782448007800F040FC2048427DF8
:102CC000224801782248007800F038FC1C488278BD
:102CD000204801782048007800F030FC1848027D38
:102CE0001E4801781E48007800F028FC1448427CF9
:102CF0001C4801781C48007800F020FC4FF4FA6072
:102D0000FFF797F800201949087070BD6300002094
:102D10002B0100204B0100207C0000203801002006
:102D2000370100203A01002039010020B2000020C4
:102D30003C0100203B0100203E0100203D0100201D
:102D400097000020410100204001002043010020A5
:102D500042010020450100204401002047010020DD
:102D600046010020490100204801002062000020A7
:102D700070B50446322C63DD204604EBD071491057
:102D8000A4EB4101002958D1FF2258480178584846
:102D9000007800F0D3FBFF225648017856480078AF
:102DA00000F0CCFBFF22554801785548007800F030
:102DB000C5FBFF22534801785348007800F0BEFB62
:102DC000FF215248007800F093FBFF225048017821
:102DD0005048007800F0B2FBFF224F4801784F487E
:102DE000007800F0ABFBFF224D4801784D48007899
:102DF00000F0A4FBFF224C4801784C48007800F01A
:102E00009DFBFF224A4801784A48007800F096FB73
:102E1000FF214948007800F06BFBFF21474800780C
:102E200000F066FBFF214648007800F061FBFF21BF
:102E30004448007800F05CFB56E0FFF75DFC53E08F
:102E4000FFF75AFC4048C27C28480178284800789F
:102E500000F074FB3C48827C2648017826480078C4
:102E600000F06CFB3848C27A244801782448007886
:102E700000F064FB3448827B2248017822480078C5
:102E800000F05CFB3148827A2148017821480078C3
:102E900000F054FB2D48827A1F4801781F480078C3
:102EA00000F04CFB2948827A1D4801781D480078C3
:102EB00000F044FB0A2094FBF0F024490D5C2A4604
:102EC000194801781948007800F038FB0A2094FB73
:102ED000F0F100FB11401D490D5C2A4614480178B1
:102EE0001448007800F02AFB70BD00003801002073
:102EF000370100203A010020390100203C01002068
:102F00003B0100203E0100203D0100203F01002048
:102F10004101002040010020430100204201002027
:102F20004501002044010020470100204601002007
:102F300049010020480100204A0100204D010020E5
:102F40004B0100204C0100207C000020BD0000202F
:102F500010B50E480078012806D0022807D00328B3
:102F600008D004280CD108E002F080FB0BE000F050
:102F70000FF808E0FFF764FE05E0FFF753FC02E0FE
:102F800000F024FB00BF00BF10BD00006200002065
:102F900070B5F84800780A2190FBF1F0C4B2F5480A
:102FA000007890FBF1F201FB1200C5B2F248C17843
:102FB000F248007800F09CFAF148027DF14801786F
:102FC000F148007800F0BAFAED48827DEF480178C8
:102FD000EF48007800F0B2FAEE48025DEE48017862
:102FE000EE48007800F0AAFAEA48425DEC48017821
:102FF000EC48007800F0A2FAEB48007830B10128E4
:1030000073D002286FD003286ED146E1E7490878D3
:1030100000EBD0714910A0EB410179BB0022E448DC
:103020000178E448007800F089FAE3484078E34901
:103030000A5CE3480178E348007800F07FFADE4854
:103040008078DE490A5CE0480178E048007800F0CA
:1030500075FAD948C078D9490A5CDD480178DD485D
:10306000007800F06BFAD4480079D4490A5CDA4859
:103070000178DA48007800F061FA32E0FFE7CE48E4
:103080000078CE490A5CCA480178CA48007800F046
:1030900055FAC9484078C9490A5CC9480178C94805
:1030A000007800F04BFAC4488078C4490A5CC648EE
:1030B0000178C648007800F041FABF48C078BF499F
:1030C0000A5CC3480178C348007800F037FABA4870
:1030D0000079BA490A5CC0480178C048007800F01D
:1030E0002DFAE9E101E06CE07AE1B049087800EB03
:1030F000D0714910A0EB410179BBAF480078AF49CE
:103100000A5CAB480178AB48007800F017FA00225F
:10311000AB480178AB48007800F010FAA6488078F8
:10312000A6490A5CA8480178A848007800F006FA89
:10313000A148C078A1490A5CA5480178A548007853
:1031400000F0FCF99C4800799C490A5CA24801788F
:10315000A248007800F0F2F932E0FFE796480078E4
:1031600096490A5C924801789248007800F0E6F9A6
:103170009148407891490A5C9148017891480078DB
:1031800000F0DCF98C4880788C490A5C8E48017824
:103190008E48007800F0D2F98748C07887490A5CE9
:1031A0008B4801788B48007800F0C8F98248007994
:1031B00082490A5C884801788848007800F0BEF9A6
:1031C0007AE17A49087800EBD0714910A0EB41010F
:1031D00079BB7948007879490A5C75480178754867
:1031E000007800F0ABF97448407874490A5C744880
:1031F00001787448007800F0A1F900227248017843
:103200007248007800F09AF96B48C0786B490A5C04
:103210006F4801786F48007800F090F966480079AF
:1032200066490A5C6C4801786C48007800F086F9C1
:1032300032E0FFE76048007860490A5C5C4801784A
:103240005C48007800F07AF95B4840785B490A5C9A
:103250005B4801785B48007800F070F95648807848
:1032600056490A5C584801785848007800F066F9D9
:103270005148C07851490A5C554801785548007852
:1032800000F05CF94C4800794C490A5C52480178DE
:103290005248007800F052F90EE14449087800EBFA
:1032A000D0714910A0EB410179BB434800784349F4
:1032B0000A5C3F4801783F48007800F03FF93E48FB
:1032C00040783E490A5C3E4801783E48007800F06C
:1032D00035F93948807839490A5C3B4801783B48E0
:1032E000007800F02BF9002239480178394800783D
:1032F00000F024F93048007930490A5C36480178FA
:103300003648007800F01AF932E0FFE72A480078E2
:103310002A490A5C264801782648007800F00EF910
:103320002548407825490A5C2548017825480078D9
:1033300000F004F92048807820490A5C224801788E
:103340002248007800F0FAF81B48C0781B490A5C54
:103350001F4801781F48007800F0F0F816480079FF
:1033600016490A5C1C4801781C48007800F0E6F811
:10337000A2E00000630000202B0100204B01002090
:103380007C00002038010020370100203A01002095
:1033900039010020B20000203C0100203B01002048
:1033A0003E0100203D0100206B0000202A0000208B
:1033B000410100204001002064000020BD000020E9
:1033C000430100204201002045010020440100206B
:1033D000470100204601002049010020480100204B
:1033E0003649087800EBD0714910A0EB410179BB58
:1033F0003348007833490A5C334801783348007811
:1034000000F09CF82E4840782E490A5C304801783C
:103410003048007800F092F82948807829490A5C01
:103420002D4801782D48007800F088F82448C078AD
:1034300024490A5C2A4801782A48007800F07EF87E
:103440000022294801782948007800F077F832E016
:10345000FFE71B4800781B490A5C1B4801781B48A2
:10346000007800F06BF81648407816490A5C184856
:1034700001781848007800F061F811488078114907
:103480000A5C154801781548007800F057F80C4898
:10349000C0780C490A5C124801781248007800F0A4
:1034A0004DF80748007907490A5C0F4801780F4832
:1034B000007800F043F800BF00BF70BD2A00002074
:1034C00064000020BD0000204101002040010020D8
:1034D000430100204201002045010020440100205A
:1034E000470100204601002049010020480100203A
:1034F00070B504460D461048006840F004000E49BF
:1035000008601920FEF788FCA0210320FFF7CAFA03
:1035100021460620FFF7C6FA29460420FFF7C2FA23
:103520000548001F006840F004000349091F0860B7
:103530001920FEF771FC70BD1408014070B50546F6
:103540000E4614462048006840F004001E490860FA
:103550001920FEF761FCA0210320FFF7A3FA2946FA
:103560000620FFF79FFA21460420FFF79BFA164832
:10357000001F006840F004001349091F086019206B
:10358000FEF74AFC1048006840F004000E4908604D
:103590001920FEF741FCA0210320FFF783FA3146F2
:1035A0000620FFF77FFA2007010E0420FFF77AFAC2
:1035B0000548001F006840F004000349091F086027
:1035C0001920FEF729FC70BD1408014010B5002138
:1035D00060480078FFF78CFF5F48007838B15E489C
:1035E0000078022803D05C480078032832D15B4879
:1035F0005B490978405C5B490A5C5B4801785B4841
:103600000078FFF79BFF5A4855490978405C5549B7
:103610000A5C5848017858480078FFF78FFF5748F0
:103620004F490978405C4F490A5C55480178554834
:103630000078FFF783FF544849490978405C4949BD
:103640000A5C5248017852480078FFF777FF02F091
:10365000A1F878E040480078012874D14148827D83
:103660004148017841480078FFF768FF3D48827D76
:103670004048017840480078FFF760FF3948827D74
:103680003F4801783F480078FFF758FF3548827D72
:103690003E4801783E480078FFF750FF00223D4841
:1036A00001783D480078FFF749FF00223B48017848
:1036B0003B480078FFF742FF00223A4801783A4839
:1036C0000078FFF73BFF002238480178384800783F
:1036D000FFF734FF00223748017837480078FFF7BA
:1036E0002DFF3648827D2B4801782B480078FFF764
:1036F00025FF3248827D2948017829480078FFF764
:103700001DFF2E48827D2748017827480078FFF763
:1037100015FF2A48827D2548017825480078FFF763
:103720000DFF2648827D2348017823480078FFF763
:1037300005FF002122480078FFF7DAFE002121482A
:103740000078FFF7D5FE2048017820480078FFF781
:10375000CFFE10BD3F01002048000020C80000201F
:10376000520000207C00002038010020370100209A
:10377000DF0000203A01002039010020F60000207F
:103780003C0100203B0100200D0100203E010020F3
:103790003D010020410100204001002043010020A4
:1037A0004201002045010020440100204701002083
:1037B0004601002049010020480100209700002018
:1037C0004D0100204A0100202B0100204B01002068
:1037D00008B50320ADF8000010208DF80300032089
:1037E0008DF8020069460848FEF7E3FC3020ADF88A
:1037F000000010208DF8030003208DF802006946B8
:103800000248FEF7D6FC08BD000801400010014048
:1038100010B501F074F9FEF731FC4FF47A70FEF741
:1038200008FBFEF793F901F0F9FCFFF7D1FFFEF773
:103830004FFEFEF7E9FFFDF729FFFEF797F8FEF7C9
:10384000BBFD4FF4165001F05BFB4FF4165001F036
:10385000B3FAFEF795FD10BD2DE9F0414FF6FF7765
:103860007148007801287CD1704800787049097847
:10387000884277D106216D4802F034FA04466B483D
:1038800080796A49C97940EA0121A142F1D16848A9
:103890000078684908706548407848706348C07887
:1038A0006249897840EA012717B1082F7ED16AE082
:1038B0000820604988706049098888B2C11700EB08
:1038C0001161090A5B4AD1705B49098888B2C11746
:1038D00000EB11610912A0EB01211171574800683A
:1038E00002F008FD86B2F01706EB1060000A51499D
:1038F00048715248006802F0FDFC86B2F01706EBF2
:1039000010600012A6EB00204A4988714A4D15F854
:10391000010BC87115F8010B087215F8010B4872FC
:1039200015F8010B88720B21424802F0DBF90446BE
:103930002046E11704EB11610912A4EB01213D4A75
:10394000D172E11704EB1161090A11734FF4807110
:103950003B48FEF7BBFCFEF765FA002039490870CA
:1039600001E05FE05BE040F22771374801F01FFBA8
:103970008021354801F012FB012240F227713248C4
:1039800001F067FB4AE008202A4988702F48007838
:10399000C8702F48007808712E48007848710020C0
:1039A00088712D4D15F8010BC87100E035E015F850
:1039B000010B087215F8010B487215F8010B88729B
:1039C0000B211C4802F08EF904462046E11704EB57
:1039D00011610912A4EB0121164AD172E11704EB1F
:1039E0001161090A11734FF480711548FEF76EFCDE
:1039F000FEF718FA00201349087040F227711248A8
:103A000001F0D5FA8021104801F0C8FA012240F2F5
:103A100027710D4801F01DFB00E000BF00BF002032
:103A200001490870BDE8F0813E000020340000200C
:103A30003F000020382200205800002030000020E5
:103A4000000801403D0000200038014052000020E5
:103A500053000020480000204400002010B5002240
:103A60000121044801F095F80021024801F074F8A2
:103A700010BD00000010004010B50121084801F001
:103A800065F80021064801F090F80122114604482B
:103A900001F07FF80121024801F05EF810BD00003E
:103AA0000010004010B500214FF0006000F048F811
:103AB0004FF4806000F03AF810BD000070B50021AE
:103AC00000230F22C47804B3154C246804F4E06486
:103AD000C4F5E064210AC1F10403CA40447804FA41
:103AE00003F184781440214309010E4C0678A15556
:103AF000047804F01F050124AC4005786D11AD0079
:103B000005F1E025C5F8004109E0047804F01F053F
:103B10000124AC40044D0678761145F8264070BD6E
:103B20000CED00E000E400E080E100E00249014328
:103B3000024A1160704700000000FA050CED00E039
:103B4000024A0A400243024B1A60704780FFFF1F7F
:103B500008ED00E07047000001460020034A50686D
:103B600020F44040084350607047000000100240BD
:103B700029B1064A52690243044B5A6104E0034AE0
:103B800052698243014B5A617047000000100240A5
:103B900029B1064AD2690243044BDA6104E0034AC0
:103BA000D2698243014BDA61704700000010024085
:103BB00029B1064A92690243044B9A6104E0034A20
:103BC00092698243014B9A617047000000100240E5
:103BD00010B500F035F84FF4803000F0F3F800F045
:103BE00051F90446012C25D11020FEF703FA0220DA
:103BF000FEF752FA002000F0D9F8002000F016F984
:103C00004FF4A06000F006F94FF4E011200400F03A
:103C10001FF9012000F016F900BF392000F0A0F8CC
:103C20000028FAD0022000F021F900BF00F0B6F819
:103C30000828FBD101211C20FFF7BAFF10BD0000AE
:103C40000F48006840F001000D49086008464068D0
:103C50000C4908400A494860084600680A4908407B
:103C6000074908600846006820F48020086008467C
:103C7000406820F4FE0048604FF41F0088607047E1
:103C8000001002400000FFF8FFFFF6FE30B50021F3
:103C90000022002400232D4D6D6805F00C0121B198
:103CA000042905D0082923D105E0294D056022E02B
:103CB000274D05601FE0254D6D6805F47012234DFA
:103CC0006D6805F48034022505EB92421CB9214D44
:103CD000554305600BE01D4D6D6805F400351DB1C1
:103CE0001C4D5543056002E0194D5543056002E047
:103CF000174D056000BF00BF144D6D6805F0F00161
:103D00000909154D6B5C0568DD4045600F4D6D6818
:103D100005F4E061090A104D6B5C4568DD40856083
:103D20000A4D6D6805F46051C90A0B4D6B5C45681E
:103D3000DD40C560054D6D6805F44041890B074DB8
:103D40006B5CC568B5FBF3F5056130BD0010024042
:103D500000127A0000093D00000000201000002041
:103D600010B501460022002300204A11012A02D189
:103D7000094C236806E0022A02D1074C236A01E0BD
:103D8000054C636A01F01F02012494401C400CB1F1
:103D9000012000E0002010BD0010024002484068F1
:103DA00000F00C00704700000010024001460020A7
:103DB000034A506820F0F00008435060704700004C
:103DC000001002401149096821F480310F4A116046
:103DD0001146096821F480211160B0F5803F03D0BD
:103DE000B0F5802F0ED106E00849096841F4803112
:103DF000064A116007E00549096841F4A021034A19
:103E0000116000E000BF00BF7047000000100240DA
:103E10007047000001460020034A506820F4E0602B
:103E20000843506070470000001002400146002027
:103E3000034A506820F4605040EAC1005060704767
:103E4000001002400149086670470000000042422D
:103E500002460020044B586820F47C1042EA01031B
:103E60001843014B58607047001002400146002083
:103E7000034A506820F00300084350607047000078
:103E80000010024038B5002000900024002500BF3B
:103E90003120FFF765FF05460098401C0090009810
:103EA000B0F5A06F01D0002DF2D03120FFF758FF00
:103EB00008B1012400E00024204638BD7047704757
:103EC0007047000070B543480078012871D101F0B7
:103ED000D3FE0546404902F08DFA044602F0EEF9A1
:103EE0003E490860096801EB8101880002F022FA6E
:103EF0000446394902F020F939490860084600684B
:103F000002F080F804460022364B01F0B5FF03D2E0
:103F100000203549086003E03148006832490860F4
:103F20003248008802F01EFA04462F4801682046F5
:103F300002F02CFA0ED82E48008802F013FA04463C
:103F400029480168204602F021FB03D202202949BA
:103F5000087027E02648008802F004FA0446224848
:103F60000168204602F012FA0ED82348008802F0B9
:103F7000F9F904461C480168204602F007FB03D803
:103F800003201C4908700DE01848008802F0EAF987
:103F9000044615480168204602F0F8FA02D20020D3
:103FA0001449087000200B490870144908800FE07C
:103FB000FFE71248008840F6B831884203DD01204F
:103FC0000C49087004E00D480088401C0B4908802B
:103FD00070BD00004200002000401C461C00002074
:103FE000780000200000084044000020500000201D
:103FF0004E000020480000204A0000205C00002005
:1040000010B500200849087040F22771074800F0F9
:10401000CEFF8021054800F0C1FF012240F2277148
:10402000024801F016F810BD41000020004C00408D
:1040300010B517480068C0F3800018B10120154979
:10404000087002E00020134908701348007828B96E
:1040500010480078012801D1104908700F480078F5
:1040600080B110210E48FEF731F920210C48FEF7EF
:104070002BF940F6B830FDF7DCFEFEF7C5FB00205B
:1040800006490870034800780349087010BD000015
:10409000080C01405F00002060000020610000204B
:1040A0000010014010B501F023FDFDF79DFC01F06B
:1040B00013FAFFF7D1FB10BD70477047704700003F
:1040C00010B520210848FEF7FFF8FFF7B1FF1021D7
:1040D0000548FEF7FBF802210448FEF7F5F8012138
:1040E0000248FEF7F1F810BD001001400008014041
:1040F00010B500F001F810BD0CB500200190009043
:104100003348006840F480303149086000BF3048CF
:10411000006800F4003000900198401C0190009865
:1041200018B90198B0F5A06FF1D12948006800F4E2
:10413000003010B10120009001E0002000900098B4
:10414000012843D12348006840F01000214908604D
:104150000846006820F0030008600846006840F048
:10416000020008601A4840681949486008464068DB
:1041700048600846406840F48060486008464068EF
:1041800020F47C1048600846406840F4E81048601D
:104190000846006840F08070086000BF0C48006866
:1041A00000F000700028F9D00948406820F00300B2
:1041B000074948600846406840F00200486000BF78
:1041C0000348406800F00C000828F9D10CBD00003D
:1041D00000100240002002402DE9F041FE48007826
:1041E0000D283ED2DFE800F03D073E75F6F0EFEE19
:1041F000EDECEBEAE900F948007842F2107148432F
:10420000F649497801EB4102C2EBC11100EBC10153
:10421000F248807800EBC00202EB001001EB800056
:10422000EE49C97801EB810100EB4100EB490979C6
:10423000084484B2EA48008884420FDDE9480088D7
:1042400084420BDAE8480088844207DAE7480480B1
:10425000FDF73AFF0320E649087002E00420E44934
:1042600008705FE3DD48007842F210714843DB4993
:10427000497801EB4102C2EBC11100EBC100D74903
:10428000897801EBC10202EB011100EB8100D349F7
:10429000C97801EB810100EB4100D049097908445C
:1042A00084B2CF48008884420FDDCE480088844223
:1042B0000BDACE480088844207DDCB480480FDF746
:1042C00003FF0320CA49087002E00420C8490870AF
:1042D00028E3C248007842F210714843BF49497848
:1042E00001EB4102C2EBC11100EBC101BB48807878
:1042F00000EBC00202EB001001EB8000B749C97867
:1043000001EB810100EB4100B4490979084484B212
:10431000B4480088844259DCCCB95520B5490870AE
:1043200031204870472088703020C870087148716B
:104330008871C8710920087234204872332088724D
:104340000D20C8720A200873FFF75AFE41E020468C
:1043500004EBD071C1F34F045520A64908703220F8
:104360004870472088700A2094FBF0F03030C87005
:104370000A2094FBF0F100FB114030309D49087198
:10438000302048718871C871092008720821994845
:1043900001F011F80746974A0A32511E384600F0DC
:1043A000F3FF0D209349C8720A200873FFF728FE17
:1043B00040F6B830FDF73DFD0BE07FE24AE201E256
:1043C000A8E190E160E1B2E01BE003E0042088494D
:1043D0000870A7E25A2087490870A520487000207D
:1043E0008870FF20C8700020087148718871C871FA
:1043F000087201204872FFF703FE03207C49087011
:1044000090E27D480078401C7B490870084600789F
:10441000012802D002287DD152E07848058842F276
:10442000107095FBF0F06D4908700846007840F276
:1044300071214843A5EB00104FF47A7190FBF1F025
:10444000664948700846007840F271214843A5EB60
:1044500000106249497801EB4102C2EBC111A0EBA7
:10446000C100642190FBF1F05C4988700846007837
:1044700040F271214843A5EB00105849497801EBFF
:104480004102C2EBC111A0EBC1005449897801EB94
:10449000C10202EB0111A0EB81000A2190FBF1F0B7
:1044A0004E49C8700A20B5FBF0F100FB11504B4992
:1044B00008712846FDF74EFB02204D49087034E094
:1044C0004648007842F2107148434449497801EB6C
:1044D0004102C2EBC11100EBC1004049897801EBF8
:1044E000C10202EB011100EB81003C49C97801EBEC
:1044F000810100EB410039490979084485B24048FF
:10450000008885420CDA3D480580FDF7DDFD00207E
:10451000394900E008E0087003203549087002E0DE
:1045200004203349087000E000BF00BFFAE13248C0
:104530000078401C3049087008460078012802D0F5
:1045400002287CD169E02E48058842F2107095FB64
:10455000F0F0224908700846007840F27121484383
:10456000A5EB00104FF47A7190FBF1F01B494870F5
:104570000846007840F271214843A5EB0010174926
:10458000497801EB4102C2EBC111A0EBC1006421EB
:1045900090FBF1F0114988700846007840F27121D3
:1045A0004843A5EB00100D49497801EB4102C2EBED
:1045B000C111A0EBC1000949897801EBC10202EBEE
:1045C0000111A0EB81000A2190FBF1F00349C870B2
:1045D0000A20B5FBF0F115E0630000206400002024
:1045E0004C0000204A0000204E0000205000002017
:1045F000620000204F2200206C0000206E0000208E
:104600007000002000FB1150C84908712846FDF7D2
:10461000A1FA0220C649087034E0C448007842F28A
:1046200010714843C149497801EB4102C2EBC11105
:1046300000EBC100BD49897801EBC10200E020E038
:1046400002EB011100EB8100B849C97801EB81014F
:1046500000EB4100B5490979084485B2B5480088A6
:1046600085420ADDB4480580FDF72EFD0020B349E0
:1046700008700320AE49087002E00420AC490870BD
:1046800000E000BF00BF4DE1A848007842F2107181
:104690004843A649497801EB4102C2EBC11100EB46
:1046A000C100A249897801EBC10202EB011100EBC4
:1046B00081009E49C97801EB810100EB41009B49D3
:1046C0000979084484B2FA2C09DA002C07DD9C49E8
:1046D0000C70FDF7F9FC03209549087002E00420F6
:1046E000934908701EE14FF4FA60FDF7A2FB012028
:1046F00080F3138800BF00BF9248006800F4E060B8
:1047000091490843001D8F490860BFF34F8F00BFD8
:1047100000BFFEE74FF480418C48FDF7D7FD4FF412
:1047200000518A48FDF7D2FD40F6B830FDF781FB15
:104730004FF480418548FDF7C7FD4FF40051834891
:10474000FDF7C2FD40F6B830FDF773FB4FF4804132
:104750007E48FDF7BBFD4FF400517C48FDF7B6FDE8
:1047600040F6B830FDF765FB4FF480417748FDF720
:10477000ABFD4FF400517548FDF7A6FD40F6B8308B
:10478000FDF757FB4FF480417048FDF79FFD4FF454
:1047900000516E48FDF79AFD40F6B830FDF749FB31
:1047A0004FF480416948FDF78FFD4FF40051674891
:1047B000FDF78AFD40F6B830FDF73BFB03205C496E
:1047C0000870AFE000263FE05A490F8807EBD77129
:1047D0004810FDF7BFF94FF47A60FDF72AFB554802
:1047E0000088FDF7B7F94FF47A60FDF722FB5149D5
:1047F00009884FF6FF7202EA4100FDF7ABF94FF46A
:104800007A60FDF716FB4B49098801EB410188B23C
:10481000FDF7A0F94FF47A60FDF70BFB45490988D5
:104820004FF6FF7202EA8100FDF794F94FF47A60C7
:10483000FDF7FFFA40480088FDF78CF94FF47A60E5
:10484000FDF7F7FA701CC6B2022EBDDB0320384913
:10485000087067E03548007842F2107148433349E8
:10486000497801EB4102C2EBC11100EBC1002F49B5
:10487000897801EBC10202EB011100EB81002B49A9
:10488000C97801EB810100EB41002849097908440E
:1048900084B20CB1012C0DD11CB900202C49087038
:1048A00002E001202A490870FDF70EFC0320204990
:1048B000087002E004201E49087033E01B480078AD
:1048C00042F2107148431949497801EB4102C2EBA9
:1048D000C11100EBC1001549897801EBC10202EB5F
:1048E000011100EB81001149C97801EB810100EB56
:1048F00041000E490979084484B20CB1012C0DD154
:104900001CB900201349087002E001201149087009
:10491000FDF7DAFB03200649087002E00420044991
:10492000087000BF00BFBDE8F081000064000020F7
:10493000620000206E000020700000206C0000204B
:104940003F0000200CED00E00000FA0500100140DF
:10495000720000207300002010B51348006840F07A
:1049600001001149086008464068104908400E4996
:104970004860084600680E4908400B490860084630
:10498000006820F4802008600846406820F4FE009B
:1049900048604FF41F008860FFF7AAFB4FF00060EB
:1049A0000449086010BD0000001002400000FFF83C
:1049B000FFFFF6FE08ED00E0704770477047704754
:1049C0007047000010B50121880700F0D1F80128D8
:1049D0001CD10121800700F0BCF87F2000F016FCFC
:1049E00000F00CFC0A480078401C09490870084691
:1049F00000780A280ADB07480078401C054908703F
:104A000000200349087001200349087010BD000010
:104A1000280000202A0000202B0000200EB50121D4
:104A20000846FFF7B5F840F25720ADF8040041F210
:104A30006F70ADF800000020ADF80600ADF8020080
:104A400069464FF0804000F0B3F8012241F27071E6
:104A5000900700F0A7F801221146900700F099F89E
:104A60000121880700F078F80EBD70477047704745
:104A700010B50121084800F07BF801280BD1012175
:104A8000054800F066F8FEF7E9FF012003490870C9
:104A900000200349087010BD001000403E000020B7
:104AA0003C0000200EB501211020FFF771F85020C6
:104AB000ADF804004FF4E160ADF800000020ADF85F
:104AC0000600ADF802006946094800F071F80122BD
:104AD0004FF4E161064800F065F80121044800F058
:104AE00035F800220121024800F053F80EBD000005
:104AF000001000407047704770477047704710B50E
:104B0000FFF78CFFFFF7CEFF00F001F810BD08B5EE
:104B10001C208DF8000003208DF8010000208DF886
:104B2000020001208DF803006846FEF7C7FF36201B
:104B30008DF8000000208DF8010001208DF80200A2
:104B40008DF803006846FEF7B9FF08BDCA4302822C
:104B50007047CA430282704721B1028842F00102C5
:104B6000028004E002884FF6FE731A40028070470C
:104B700030B50246002000230024158A05EA01030F
:104B8000958905EA010413B10CB1012000E0002071
:104B900030BD1AB183890B43838102E083898B4343
:104BA000838170470185828270478184704700004D
:104BB000002202881D4B98420ED01D4B98420BD00C
:104BC000B0F1804F08D01B4B984205D01A4B984249
:104BD00002D01A4B984204D14FF68F731A404B887B
:104BE0001A43174B984207D0164B984204D04FF601
:104BF000FF431A40CB881A4302808B8883850B8839
:104C000003850A4B98420BD0094B984208D00E4BB3
:104C1000984205D00D4B984202D00D4B984201D1DD
:104C20000B7A03860123838270470000002C014029
:104C3000003401400004004000080040000C004027
:104C400000100040001400400040014000440140BA
:104C50000048014010B540F225514D4800F0CFF911
:104C6000012861D140F22551494800F0A0F9484897
:104C700000F0B7FAC4B247480078642850DA4648D2
:104C800044490978445443480078002842DD4248AA
:104C900040490978405C0A283CD13E480078401ED3
:104CA0003D49085C0D2835D13A490978481C3B49F3
:104CB00008800D280FD138490978394A1278914275
:104CC00009D135494978364A5278914203D10321B6
:104CD000344A11701AE00D280FD12F490978324A51
:104CE0001278914209D12C4949782F4A5278914241
:104CF00003D103212B4A117008E00F2803D10121B1
:104D00002A4A117002E00021284A11700021214A2C
:104D1000117008E01F480078401C1E49087002E02E
:104D200000201C49087024E040F22771184800F068
:104D300066F901281DD140F22771154800F037F9B6
:104D40001B4800780D280BDA194802780078401CBF
:104D5000174B18701748815C0D4800F047FA08E0BF
:104D6000002240F227710A4800F073F90020104930
:104D700008700821064800F035F9012806D10821FD
:104D8000034800F00BF9024800F02BFA10BD0000B8
:104D9000004C004018000020B80100201400002042
:104DA000F267000862000020F0670008420000205F
:104DB000410000204F22002038B504460121C804DC
:104DC000FEF7E6FE01210420FEF7F2FE4FF400603C
:104DD000ADF8000004208DF8030069461148FDF786
:104DE000E8F94FF48060ADF8000001208DF8020072
:104DF00018208DF8030069460A48FDF7DAF92146C4
:104E0000094800F0B7F940F22551074800F0CFF803
:104E1000012240F22551044800F01BF900F0C3F9CB
:104E200038BD000000100140004C004070470000F9
:104E300010B540F225512C4800F0E1F8012817D1B7
:104E400040F22551284800F0B2F8274800F0C9F98F
:104E5000C4B2FEF711FE25480078082835DA234849
:104E600001780078401C214A1070214844542CE0FD
:104E700040F227711C4800F0C2F8012825D140F209
:104E80002771194800F093F81A4800780D280BDABA
:104E9000184802780078401C164B18701648815C40
:104EA000114800F0A3F910E0002240F227710E48EB
:104EB00000F0CFF800200F4908700220FCF7B9FF7E
:104EC0004FF480710D48FDF7FFF90821064800F006
:104ED00089F8012806D10821034800F05FF802484C
:104EE00000F07FF910BD0000003801403C000020B8
:104EF000340000203D00002038220020000801403E
:104F000038B50446012144F20100FEF751FE0121AB
:104F10000420FEF74DFE4FF48070ADF80000012034
:104F20008DF8020014208DF8030069461848FDF73B
:104F300040F94FF480711648FDF7C6F94FF4007040
:104F4000ADF8000018208DF8030001208DF8020054
:104F500069460F48FDF72DF94FF48060ADF8000069
:104F600004208DF8030069460948FDF722F921461F
:104F7000084800F0FFF840F22551064800F017F805
:104F8000012240F22551034800F063F838BD0000CB
:104F900000080140003801407047704701F400727A
:104FA000B2F5007F00D100BFCA430280704710B540
:104FB0000022002340F66A14A14200D100BF0A1269
:104FC00001249440A3B2DC43048010BD21B1828946
:104FD00042F40052828104E082894DF6FF731A4048
:104FE0008281704702460020B1F5007F00D100BFEA
:104FF00013880B400BB1012000E00020704770B512
:105000000246002400230025002040F66A16B14223
:1050100000D100BFC1F3421501F01F03012606FABB
:1050200003F3012D02D19689334006E0022D02D10F
:10503000168A334001E0968A33400C12012606FAA4
:1050400004F41688344013B10CB1012000E00020B4
:1050500070BDF0B50346002400260025002040F670
:105060006A17B94200D100BF1846C1F3421401F0DB
:105070001F06012707FA06F5012C01D10C3004E0C8
:10508000022C01D1103000E014301AB107682F4310
:10509000076002E00768AF430760F0BD2DE9F04705
:1050A00086B005460E460024A24600BFA146002752
:1050B000B08900B100BF2F462C8A4CF6FF70044027
:1050C000F08804432C82AC894EF6F3100440B0887B
:1050D00031890843718908430443AC81AC8A4FF697
:1050E000FF400440B0890443AC8201A8FEF7CEFD26
:1050F0001F48874202D1DDF810A001E0DDF80CA0C6
:10510000A88900F4004040B10AEBCA0000EB0A1085
:1051100031684900B0FBF1F807E00AEBCA0000EB88
:105120000A1031688900B0FBF1F86420B8FBF0F098
:1051300004012009642101FB1089A88900F40040C2
:1051400040B1322000EBC900B0FBF1F000F00700E5
:10515000044308E0322000EB09106421B0FBF1F0B9
:1051600000F00F0004432C8106B0BDE8F08700007A
:10517000003801407FB505460C4600940020ADF88C
:105180000400ADF80600ADF80800ADF80C000C20E6
:10519000ADF80A0069462846FFF780FF012128463E
:1051A000FFF714FF7FBD08B525208DF80000012012
:1051B0008DF8010002208DF8020001208DF8030017
:1051C0006846FEF77BFC34208DF8000001208DF846
:1051D00001008DF802008DF803006846FEF76EFCB2
:1051E00008BD01468888C0F308007047C1F3080273
:1051F0008280704770477047704700000020014967
:1052000008607047082C00407047000000F07F01E4
:10521000014A116070470000002C004008B50420CE
:10522000ADF8000028208DF8030003208DF802005F
:1052300069460348FCF7BDFF01480830006808BD17
:10524000000C014040F2013200204FF0E04101F03B
:1052500083BA0000024A0020110701F07DBA000065
:1052600001FDFFFF10B50446D1E9000100F002F88E
:10527000206010BDF8B504460D466A4600F000F9FE
:1052800000987E30009000281EDC00221346204645
:10529000294600F0B5FD17D0002140F608004FF078
:1052A000000006462046294600F064FD044640F60C
:1052B000080006EA00014FF0000034F0004004BF8F
:1052C0000220FAF7D9FF29E00098FF2828DB002107
:1052D00008464FF0000000F4400600221346204626
:1052E000294600F059FE8CBF002501250220FAF75F
:1052F000C3FF4FF0FF4446B1002D0CBF4FF4000038
:105300004FF48000B04218BF084C042108464FF00B
:105310000000002D04BF84F00040F8BD2046F8BD19
:1053200020462946BDE8F84000F024BDFFFF7F7FFE
:1053300000F0010181F31388704710B504460A4656
:10534000D4E90003194600F099FBC4E9000110BD3F
:1053500030380A2801D2012070470020704730B54C
:1053600083B00446FAF783FF05460020CDE900002C
:10537000024621466846FAF7A3FF2846FAF77CFF63
:10538000DDE9000103B030BD30B503460C46190914
:105390000A2902DA01F1300501E001F13705257033
:1053A00003F00F000A2802DA00F1300501E000F1F5
:1053B0003705157030BD30B502460023002003E0EC
:1053C000155C1D44ABB2401C8842F9D3D843401C45
:1053D000C4B2204630BD000070B50125062408E0A7
:1053E0002046FDF7C5FC40F69800FCF722FD601E44
:1053F000C4B2002CF4DC00F05FFC19480088FF28E0
:1054000014D018480088FF2810D017480078FF28CB
:105410000CD016480078FF2808D015480088FF28CF
:1054200004D014480088FF2800D0002514E0FDF7C0
:1054300093FB10211048FCF747FF20210E48FCF792
:1054400045FF0E490E8806EBD6714810FCF782FB2B
:105450004FF47A70FCF7EDFC002DE8D170BD000030
:10546000500000204E000020520000205300002079
:105470004A0000204C000020001001406E00002077
:1054800010B5144600222260114A21F000439342D5
:10549000A8BF10BD53EA000208BF10BDB3F5801FBE
:1054A000A8BF226807DA362201F056F96FF03502FC
:1054B00021F000432260DFF81CC06FF31E510CEB9B
:1054C00023531A4441F0FF5141F00051226010BDB6
:1054D0000000F07F02FCFFFF10B55D480078022855
:1054E0005DD15C480078022822D15B480078A0B9E1
:1054F0005A480078B0B94FF480415948FCF7E6FEAD
:105500000120564908704FF47A70FCF792FC4FF472
:1055100080415348FCF7D8FE04E04FF480415048E6
:10552000FCF7D4FE4FF400514D48FCF7CDFE8EE061
:1055300048480078032822D14A480078A0B94A4850
:105540000078B0B94FF400514548FCF7BFFE012088
:10555000454908704FF47A70FCF76BFC4FF400512A
:105560003F48FCF7B1FE04E04FF400513C48FCF723
:10557000ADFE4FF480413A48FCF7A6FE67E00020FC
:1055800036490870384908704FF480413448FCF7B8
:105590009BFE4FF400513248FCF796FE57E02D4831
:1055A0000078022844DB2C480078A0B92B4800780A
:1055B000B0B94FF480412A48FCF788FE0120274902
:1055C00008704FF47A70FCF734FC4FF480412448A3
:1055D000FCF77AFE04E04FF480412148FCF776FEA8
:1055E0001C48007803281DD11E480078A0B91E4829
:1055F000007860BB4FF400511948FCF767FE0120AA
:10560000194908704FF47A70FCF713FC4FF40051FD
:105610001348FCF759FE1AE04FF400511048FCF70C
:1056200055FE14E04FF400510D48FCF74DFE0EE01E
:1056300000200A4908700C4908704FF4804108485E
:10564000FCF742FE4FF400510548FCF73DFE10BD4B
:10565000520000204800002072000020740000204A
:1056600000100140730000207500002070B5304824
:1056700000780A2190FBF1F0C4B22D48007890FB2D
:10568000F1F201FB1200C5B200212A480078FDF7B3
:105690002FFF002128480078FDF72AFF2748C1780E
:1056A00027480078FDF724FF2648027D2648017828
:1056B00026480078FDF742FF2248827D2448017881
:1056C00024480078FDF73AFF2348025D234801781B
:1056D00023480078FDF732FF1F48425D21480178DA
:1056E00021480078FDF72AFF002220480178204851
:1056F0000078FDF723FF00221E4801781E4800783D
:10570000FDF71CFF00221D4801781D480078FDF7B9
:1057100015FF00221B4801781B480078FDF70EFF9B
:1057200000221A4801781A480078FDF707FF70BD7B
:10573000630000204D0100204A0100202B010020C1
:105740004B0100207C0000203801002037010020A0
:105750003A01002039010020B20000203C01002065
:105760003B0100203E0100203D01002041010020BE
:10577000400100204301002042010020450100209B
:10578000440100204701002046010020490100207B
:10579000480100202DE9FE4FA1480068A14908609A
:1057A000A148008800F0DEFD81469E480168484619
:1057B00000F0ECFD05D29C48008800F0D3FD99492B
:1057C00008609A499748006800F0B6FC814600F0EE
:1057D00091FDC4B24FF47A7104FB01F000F0AAFD10
:1057E000834690480168584600F001FF8246904980
:1057F00000F0A2FC814600F07DFDC5B2642105FBEE
:1058000001F000F097FD4FF47A71029004FB01F073
:1058100000F090FD019083480168019800F0E7FED8
:105820008346029900F0EEFE8246824900F084FC35
:10583000814600F05FFDC6B206EB8601480000F02D
:1058400079FD6421029005FB01F000F073FD4FF437
:105850007A71019004FB01F000F06CFD009071483A
:105860000168009800F0C3FE8346019900F0CAFE6B
:105870008246029900F0C6FE814600F03BFDC7B2A9
:105880006C496848006800F0B5FD814600F032FDC3
:105890000A21B0FBF1F201FB1208002C7ED1002D91
:1058A00054D14EBB6448827A6448017864480078D9
:1058B000FDF744FE6048827A6248017862480078C9
:1058C000FDF73CFE5C48827A6048017860480078C9
:1058D000FDF734FE5848C25D5E4801785E480078A6
:1058E000FDF72CFE544810F808205C4801785C480D
:1058F0000078FDF723FE7EE04F48827A4F4801781A
:105900004F480078FDF71AFE4B48827A4D480178DF
:105910004D480078FDF712FE4748825D4B480178FC
:105920004B480078FDF70AFE4348C25D49480178BC
:1059300049480078FDF702FE3F4810F80820474824
:10594000017847480078FDF7F9FD54E03A48827A3B
:105950003A4801783A480078FDF7F0FD3648425D54
:105960003848017838480078FDF7E8FD3248825D14
:105970003648017836480078FDF7E0FD2E48C25DD4
:105980003448017834480078FDF7D8FD2A4810F8EB
:105990000820324801783248007800E002E0FDF744
:1059A000CDFD28E02448025D244801782448007891
:1059B000FDF7C4FD2048425D224801782248007866
:1059C000FDF7BCFD1C48825D204801782048007826
:1059D000FDF7B4FD1848C25D1E4801781E480078E6
:1059E000FDF7ACFD144810F808201C4801781C484D
:1059F0000078FDF7A3FD1B481B4A1278815C1B4809
:105A00000078FDF775FD1A48C1781A480078FDF74F
:105A10006FFD002118480078FDF76AFDBDE8FE8F94
:105A200044000020500100204A00002000007A4479
:105A30000000C84200002041BD00002041010020BC
:105A400040010020430100204201002045010020C8
:105A500044010020470100204601002049010020A8
:105A60004801002032010020530000204D01002099
:105A7000270100204A0100204C0100202DE9F041BF
:105A800006460C4640F2FF75174635EA14502BD0F7
:105A900000221346304600F0B3F925D03A4630468E
:105AA000214600F059FE06460C4635EA145010D047
:105AB00000221346304600F0A3F915D10220FAF770
:105AC000DBFBFFF7C7FB0A46214662F31E01BDE878
:105AD000F0810220FAF7D0FBFFF7B4FB0A4621461B
